{
  "_format": "hh-sol-artifact-1",
  "contractName": "IdentityZKP",
  "sourceName": "contracts/IdentityZKP.sol",
  "abi": [
    {
      "inputs": [
        {
          "internalType": "address",
          "name": "_verifier",
          "type": "address"
        }
      ],
      "stateMutability": "nonpayable",
      "type": "constructor"
    },
    {
      "anonymous": false,
      "inputs": [
        {
          "indexed": true,
          "internalType": "address",
          "name": "oldAdmin",
          "type": "address"
        },
        {
          "indexed": true,
          "internalType": "address",
          "name": "newAdmin",
          "type": "address"
        }
      ],
      "name": "AdminChanged",
      "type": "event"
    },
    {
      "anonymous": false,
      "inputs": [
        {
          "indexed": true,
          "internalType": "bytes32",
          "name": "userId",
          "type": "bytes32"
        },
        {
          "indexed": false,
          "internalType": "uint256",
          "name": "hash",
          "type": "uint256"
        }
      ],
      "name": "HashSubmitted",
      "type": "event"
    },
    {
      "anonymous": false,
      "inputs": [
        {
          "indexed": true,
          "internalType": "bytes32",
          "name": "userId",
          "type": "bytes32"
        },
        {
          "indexed": false,
          "internalType": "uint256",
          "name": "hash",
          "type": "uint256"
        }
      ],
      "name": "IdentityApproved",
      "type": "event"
    },
    {
      "anonymous": false,
      "inputs": [
        {
          "indexed": true,
          "internalType": "bytes32",
          "name": "userId",
          "type": "bytes32"
        }
      ],
      "name": "ProofVerified",
      "type": "event"
    },
    {
      "inputs": [],
      "name": "admin",
      "outputs": [
        {
          "internalType": "address",
          "name": "",
          "type": "address"
        }
      ],
      "stateMutability": "view",
      "type": "function"
    },
    {
      "inputs": [
        {
          "internalType": "bytes32",
          "name": "userId",
          "type": "bytes32"
        }
      ],
      "name": "approveIdentity",
      "outputs": [],
      "stateMutability": "nonpayable",
      "type": "function"
    },
    {
      "inputs": [
        {
          "internalType": "bytes32",
          "name": "",
          "type": "bytes32"
        }
      ],
      "name": "hasSubmitted",
      "outputs": [
        {
          "internalType": "bool",
          "name": "",
          "type": "bool"
        }
      ],
      "stateMutability": "view",
      "type": "function"
    },
    {
      "inputs": [
        {
          "internalType": "bytes32",
          "name": "",
          "type": "bytes32"
        }
      ],
      "name": "isApproved",
      "outputs": [
        {
          "internalType": "bool",
          "name": "",
          "type": "bool"
        }
      ],
      "stateMutability": "view",
      "type": "function"
    },
    {
      "inputs": [
        {
          "internalType": "bytes32",
          "name": "",
          "type": "bytes32"
        }
      ],
      "name": "isRegistered",
      "outputs": [
        {
          "internalType": "bool",
          "name": "",
          "type": "bool"
        }
      ],
      "stateMutability": "view",
      "type": "function"
    },
    {
      "inputs": [
        {
          "internalType": "bytes32",
          "name": "",
          "type": "bytes32"
        }
      ],
      "name": "isVerified",
      "outputs": [
        {
          "internalType": "bool",
          "name": "",
          "type": "bool"
        }
      ],
      "stateMutability": "view",
      "type": "function"
    },
    {
      "inputs": [
        {
          "internalType": "bytes32",
          "name": "",
          "type": "bytes32"
        }
      ],
      "name": "registeredHash",
      "outputs": [
        {
          "internalType": "uint256",
          "name": "",
          "type": "uint256"
        }
      ],
      "stateMutability": "view",
      "type": "function"
    },
    {
      "inputs": [
        {
          "internalType": "address",
          "name": "newAdmin",
          "type": "address"
        }
      ],
      "name": "setAdmin",
      "outputs": [],
      "stateMutability": "nonpayable",
      "type": "function"
    },
    {
      "inputs": [
        {
          "internalType": "bytes32",
          "name": "userId",
          "type": "bytes32"
        },
        {
          "internalType": "uint256",
          "name": "hash",
          "type": "uint256"
        }
      ],
      "name": "submitHashByUser",
      "outputs": [],
      "stateMutability": "nonpayable",
      "type": "function"
    },
    {
      "inputs": [
        {
          "internalType": "bytes32",
          "name": "userId",
          "type": "bytes32"
        },
        {
          "internalType": "uint256[2]",
          "name": "a",
          "type": "uint256[2]"
        },
        {
          "internalType": "uint256[2][2]",
          "name": "b",
          "type": "uint256[2][2]"
        },
        {
          "internalType": "uint256[2]",
          "name": "c",
          "type": "uint256[2]"
        }
      ],
      "name": "submitProof",
      "outputs": [],
      "stateMutability": "nonpayable",
      "type": "function"
    },
    {
      "inputs": [
        {
          "internalType": "bytes32",
          "name": "",
          "type": "bytes32"
        }
      ],
      "name": "submittedHash",
      "outputs": [
        {
          "internalType": "uint256",
          "name": "",
          "type": "uint256"
        }
      ],
      "stateMutability": "view",
      "type": "function"
    }
  ],
  "bytecode": "0x60806040523480156200001157600080fd5b506040516200121038038062001210833981810160405281019062000037919062000129565b806000806101000a81548173ffffffffffffffffffffffffffffffffffffffff021916908373ffffffffffffffffffffffffffffffffffffffff16021790555033600160006101000a81548173ffffffffffffffffffffffffffffffffffffffff021916908373ffffffffffffffffffffffffffffffffffffffff160217905550506200015b565b600080fd5b600073ffffffffffffffffffffffffffffffffffffffff82169050919050565b6000620000f182620000c4565b9050919050565b6200010381620000e4565b81146200010f57600080fd5b50565b6000815190506200012381620000f8565b92915050565b600060208284031215620001425762000141620000bf565b5b6000620001528482850162000112565b91505092915050565b6110a5806200016b6000396000f3fe608060405234801561001057600080fd5b50600436106100a95760003560e01c8063704b6c0211610071578063704b6c021461019e578063847dc9a1146101ba578063c181b273146101d6578063cb0a2fa414610206578063e0a5e6ea14610222578063f851a4401461023e576100a9565b806327258b22146100ae5780632f47b80e146100de57806348aefc321461010e578063634664b41461013e578063701a3ee01461016e575b600080fd5b6100c860048036038101906100c39190610961565b61025c565b6040516100d591906109a9565b60405180910390f35b6100f860048036038101906100f39190610961565b61027c565b60405161010591906109a9565b60405180910390f35b61012860048036038101906101239190610961565b61029c565b60405161013591906109a9565b60405180910390f35b61015860048036038101906101539190610961565b6102bc565b60405161016591906109dd565b60405180910390f35b61018860048036038101906101839190610961565b6102d4565b60405161019591906109dd565b60405180910390f35b6101b860048036038101906101b39190610a56565b6102ec565b005b6101d460048036038101906101cf9190610acc565b6104ab565b005b6101f060048036038101906101eb9190610961565b61068a565b6040516101fd91906109a9565b60405180910390f35b610220600480360381019061021b9190610961565b6106aa565b005b61023c60048036038101906102379190610b60565b61085e565b005b6102466108de565b6040516102539190610baf565b60405180910390f35b60066020528060005260406000206000915054906101000a900460ff1681565b60036020528060005260406000206000915054906101000a900460ff1681565b60046020528060005260406000206000915054906101000a900460ff1681565b60056020528060005260406000206000915090505481565b60026020528060005260406000206000915090505481565b600160009054906101000a900473ffffffffffffffffffffffffffffffffffffffff1673ffffffffffffffffffffffffffffffffffffffff163373ffffffffffffffffffffffffffffffffffffffff161461037c576040517f08c379a000000000000000000000000000000000000000000000000000000000815260040161037390610c4d565b60405180910390fd5b600073ffffffffffffffffffffffffffffffffffffffff168173ffffffffffffffffffffffffffffffffffffffff16036103eb576040517f08c379a00000000000000000000000000000000000000000000000000000000081526004016103e290610cb9565b60405180910390fd5b8073ffffffffffffffffffffffffffffffffffffffff16600160009054906101000a900473ffffffffffffffffffffffffffffffffffffffff1673ffffffffffffffffffffffffffffffffffffffff167f7e644d79422f17c01e4894b5f4f588d331ebfa28653d42ae832dc59e38c9798f60405160405180910390a380600160006101000a81548173ffffffffffffffffffffffffffffffffffffffff021916908373ffffffffffffffffffffffffffffffffffffffff16021790555050565b6006600085815260200190815260200160002060009054906101000a900460ff1661050b576040517f08c379a000000000000000000000000000000000000000000000000000000000815260040161050290610d25565b60405180910390fd5b610513610904565b60056000868152602001908152602001600020548160006001811061053b5761053a610d45565b5b60200201818152505060008060009054906101000a900473ffffffffffffffffffffffffffffffffffffffff1673ffffffffffffffffffffffffffffffffffffffff166343753b4d868686866040518563ffffffff1660e01b81526004016105a69493929190610ef7565b602060405180830381865afa1580156105c3573d6000803e3d6000fd5b505050506040513d601f19601f820116820180604052508101906105e79190610f6a565b905080610629576040517f08c379a000000000000000000000000000000000000000000000000000000000815260040161062090610fe3565b60405180910390fd5b60016007600088815260200190815260200160002060006101000a81548160ff021916908315150217905550857f543093db8d78fd8619586d3a0be12a5736836393feede0888f262888c81ce4c360405160405180910390a2505050505050565b60076020528060005260406000206000915054906101000a900460ff1681565b600160009054906101000a900473ffffffffffffffffffffffffffffffffffffffff1673ffffffffffffffffffffffffffffffffffffffff163373ffffffffffffffffffffffffffffffffffffffff161461073a576040517f08c379a000000000000000000000000000000000000000000000000000000000815260040161073190610c4d565b60405180910390fd5b6003600082815260200190815260200160002060009054906101000a900460ff1661079a576040517f08c379a00000000000000000000000000000000000000000000000000000000081526004016107919061104f565b60405180910390fd5b60006002600083815260200190815260200160002054905080600560008481526020019081526020016000208190555060016006600084815260200190815260200160002060006101000a81548160ff02191690831515021790555060016004600084815260200190815260200160002060006101000a81548160ff021916908315150217905550817fe664ae66cdf13db5fa872e31c529d4c087449e6292b57c7211d4633d539ce7808260405161085291906109dd565b60405180910390a25050565b80600260008481526020019081526020016000208190555060016003600084815260200190815260200160002060006101000a81548160ff021916908315150217905550817fd4baf8012ad422754c4d25b50836c43e8e7a02d71e1c156c5d0cc5fa57cb10af826040516108d291906109dd565b60405180910390a25050565b600160009054906101000a900473ffffffffffffffffffffffffffffffffffffffff1681565b6040518060200160405280600190602082028036833780820191505090505090565b600080fd5b6000819050919050565b61093e8161092b565b811461094957600080fd5b50565b60008135905061095b81610935565b92915050565b60006020828403121561097757610976610926565b5b60006109858482850161094c565b91505092915050565b60008115159050919050565b6109a38161098e565b82525050565b60006020820190506109be600083018461099a565b92915050565b6000819050919050565b6109d7816109c4565b82525050565b60006020820190506109f260008301846109ce565b92915050565b600073ffffffffffffffffffffffffffffffffffffffff82169050919050565b6000610a23826109f8565b9050919050565b610a3381610a18565b8114610a3e57600080fd5b50565b600081359050610a5081610a2a565b92915050565b600060208284031215610a6c57610a6b610926565b5b6000610a7a84828501610a41565b91505092915050565b600080fd5b600081905082602060020282011115610aa457610aa3610a83565b5b92915050565b600081905082604060020282011115610ac657610ac5610a83565b5b92915050565b6000806000806101208587031215610ae757610ae6610926565b5b6000610af58782880161094c565b9450506020610b0687828801610a88565b9350506060610b1787828801610aaa565b92505060e0610b2887828801610a88565b91505092959194509250565b610b3d816109c4565b8114610b4857600080fd5b50565b600081359050610b5a81610b34565b92915050565b60008060408385031215610b7757610b76610926565b5b6000610b858582860161094c565b9250506020610b9685828601610b4b565b9150509250929050565b610ba981610a18565b82525050565b6000602082019050610bc46000830184610ba0565b92915050565b600082825260208201905092915050565b7f4f6e6c792061646d696e2063616e20706572666f726d2074686973206163746960008201527f6f6e000000000000000000000000000000000000000000000000000000000000602082015250565b6000610c37602283610bca565b9150610c4282610bdb565b604082019050919050565b60006020820190508181036000830152610c6681610c2a565b9050919050565b7f496e76616c6964206e65772061646d696e000000000000000000000000000000600082015250565b6000610ca3601183610bca565b9150610cae82610c6d565b602082019050919050565b60006020820190508181036000830152610cd281610c96565b9050919050565b7f48617368206e6f74207265676973746572656400000000000000000000000000600082015250565b6000610d0f601383610bca565b9150610d1a82610cd9565b602082019050919050565b60006020820190508181036000830152610d3e81610d02565b9050919050565b7f4e487b7100000000000000000000000000000000000000000000000000000000600052603260045260246000fd5b82818337505050565b610d8960408383610d74565b5050565b600060029050919050565b600081905092915050565b6000819050919050565b610db960408383610d74565b5050565b6000610dc98383610dad565b60408301905092915050565b600082905092915050565b6000604082019050919050565b610df681610d8d565b610e008184610d98565b9250610e0b82610da3565b8060005b83811015610e4457610e218284610dd5565b610e2b8782610dbd565b9650610e3683610de0565b925050600181019050610e0f565b505050505050565b600060019050919050565b600081905092915050565b6000819050919050565b610e75816109c4565b82525050565b6000610e878383610e6c565b60208301905092915050565b6000602082019050919050565b610ea981610e4c565b610eb38184610e57565b9250610ebe82610e62565b8060005b83811015610eef578151610ed68782610e7b565b9650610ee183610e93565b925050600181019050610ec2565b505050505050565b600061012082019050610f0d6000830187610d7d565b610f1a6040830186610ded565b610f2760c0830185610d7d565b610f35610100830184610ea0565b95945050505050565b610f478161098e565b8114610f5257600080fd5b50565b600081519050610f6481610f3e565b92915050565b600060208284031215610f8057610f7f610926565b5b6000610f8e84828501610f55565b91505092915050565b7f496e76616c6964205a4b2070726f6f6600000000000000000000000000000000600082015250565b6000610fcd601083610bca565b9150610fd882610f97565b602082019050919050565b60006020820190508181036000830152610ffc81610fc0565b9050919050565b7f48617368206e6f74207375626d69747465642062792075736572000000000000600082015250565b6000611039601a83610bca565b915061104482611003565b602082019050919050565b600060208201905081810360008301526110688161102c565b905091905056fea2646970667358221220dbfaddb467aec59d6c512e4f6042dd2dbee2574604b59178c52b8c4feb376c3364736f6c63430008140033",
  "linkReferences": {},
  "deployedLinkReferences": {}
}