{
  "_format": "hh-sol-artifact-1",
  "contractName": "IdentityZKP",
  "sourceName": "contracts/IdentityZKP.sol",
  "abi": [
    {
      "inputs": [
        {
          "internalType": "address",
          "name": "_verifier",
          "type": "address"
        }
      ],
      "stateMutability": "nonpayable",
      "type": "constructor"
    },
    {
      "anonymous": false,
      "inputs": [
        {
          "indexed": false,
          "internalType": "string",
          "name": "message",
          "type": "string"
        },
        {
          "indexed": false,
          "internalType": "bool",
          "name": "result",
          "type": "bool"
        }
      ],
      "name": "DebugEvent",
      "type": "event"
    },
    {
      "anonymous": false,
      "inputs": [
        {
          "indexed": true,
          "internalType": "address",
          "name": "user",
          "type": "address"
        }
      ],
      "name": "ProofVerified",
      "type": "event"
    },
    {
      "inputs": [
        {
          "internalType": "address",
          "name": "user",
          "type": "address"
        }
      ],
      "name": "isUserVerified",
      "outputs": [
        {
          "internalType": "bool",
          "name": "",
          "type": "bool"
        }
      ],
      "stateMutability": "view",
      "type": "function"
    },
    {
      "inputs": [
        {
          "internalType": "address",
          "name": "",
          "type": "address"
        }
      ],
      "name": "isVerified",
      "outputs": [
        {
          "internalType": "bool",
          "name": "",
          "type": "bool"
        }
      ],
      "stateMutability": "view",
      "type": "function"
    },
    {
      "inputs": [
        {
          "internalType": "uint256[2]",
          "name": "a",
          "type": "uint256[2]"
        },
        {
          "internalType": "uint256[2][2]",
          "name": "b",
          "type": "uint256[2][2]"
        },
        {
          "internalType": "uint256[2]",
          "name": "c",
          "type": "uint256[2]"
        },
        {
          "internalType": "uint256[1]",
          "name": "publicSignals",
          "type": "uint256[1]"
        }
      ],
      "name": "submitProof",
      "outputs": [],
      "stateMutability": "nonpayable",
      "type": "function"
    }
  ],
  "bytecode": "0x608060405234801561001057600080fd5b5060405161085b38038061085b833981810160405281019061003291906100db565b806000806101000a81548173ffffffffffffffffffffffffffffffffffffffff021916908373ffffffffffffffffffffffffffffffffffffffff16021790555050610108565b600080fd5b600073ffffffffffffffffffffffffffffffffffffffff82169050919050565b60006100a88261007d565b9050919050565b6100b88161009d565b81146100c357600080fd5b50565b6000815190506100d5816100af565b92915050565b6000602082840312156100f1576100f0610078565b5b60006100ff848285016100c6565b91505092915050565b610744806101176000396000f3fe608060405234801561001057600080fd5b50600436106100415760003560e01c8063ace417e014610046578063b9209e3314610076578063d7a6401b146100a6575b600080fd5b610060600480360381019061005b9190610358565b6100c2565b60405161006d91906103a0565b60405180910390f35b610090600480360381019061008b9190610358565b610118565b60405161009d91906103a0565b60405180910390f35b6100c060048036038101906100bb9190610426565b610138565b005b6000600160008373ffffffffffffffffffffffffffffffffffffffff1673ffffffffffffffffffffffffffffffffffffffff16815260200190815260200160002060009054906101000a900460ff169050919050565b60016020528060005260406000206000915054906101000a900460ff1681565b60008060009054906101000a900473ffffffffffffffffffffffffffffffffffffffff1673ffffffffffffffffffffffffffffffffffffffff166343753b4d868686866040518563ffffffff1660e01b815260040161019a9493929190610577565b602060405180830381865afa1580156101b7573d6000803e3d6000fd5b505050506040513d601f19601f820116820180604052508101906101db91906105ea565b90507fcc0c1f484251fd301d8273455e49506ef7b5478ea05e709d6efdff38591980d08160405161020c9190610674565b60405180910390a180610254576040517f08c379a000000000000000000000000000000000000000000000000000000000815260040161024b906106ee565b60405180910390fd5b60018060003373ffffffffffffffffffffffffffffffffffffffff1673ffffffffffffffffffffffffffffffffffffffff16815260200190815260200160002060006101000a81548160ff0219169083151502179055503373ffffffffffffffffffffffffffffffffffffffff167f9cbb2c694eed9687ad9654ae462269807cc8b44f6dbd076f296bd916f1f3d0cd60405160405180910390a25050505050565b600080fd5b600073ffffffffffffffffffffffffffffffffffffffff82169050919050565b6000610325826102fa565b9050919050565b6103358161031a565b811461034057600080fd5b50565b6000813590506103528161032c565b92915050565b60006020828403121561036e5761036d6102f5565b5b600061037c84828501610343565b91505092915050565b60008115159050919050565b61039a81610385565b82525050565b60006020820190506103b56000830184610391565b92915050565b600080fd5b6000819050826020600202820111156103dc576103db6103bb565b5b92915050565b6000819050826040600202820111156103fe576103fd6103bb565b5b92915050565b6000819050826020600102820111156104205761041f6103bb565b5b92915050565b6000806000806101208587031215610441576104406102f5565b5b600061044f878288016103c0565b9450506040610460878288016103e2565b93505060c0610471878288016103c0565b92505061010061048387828801610404565b91505092959194509250565b82818337505050565b6104a46040838361048f565b5050565b600060029050919050565b600081905092915050565b6000819050919050565b6104d46040838361048f565b5050565b60006104e483836104c8565b60408301905092915050565b600082905092915050565b6000604082019050919050565b610511816104a8565b61051b81846104b3565b9250610526826104be565b8060005b8381101561055f5761053c82846104f0565b61054687826104d8565b9650610551836104fb565b92505060018101905061052a565b505050505050565b6105736020838361048f565b5050565b60006101208201905061058d6000830187610498565b61059a6040830186610508565b6105a760c0830185610498565b6105b5610100830184610567565b95945050505050565b6105c781610385565b81146105d257600080fd5b50565b6000815190506105e4816105be565b92915050565b600060208284031215610600576105ff6102f5565b5b600061060e848285016105d5565b91505092915050565b600082825260208201905092915050565b7f566572696669636174696f6e20726573756c7400000000000000000000000000600082015250565b600061065e601383610617565b915061066982610628565b602082019050919050565b6000604082019050818103600083015261068d81610651565b905061069c6020830184610391565b92915050565b7f496e76616c6964205a4b2070726f6f6600000000000000000000000000000000600082015250565b60006106d8601083610617565b91506106e3826106a2565b602082019050919050565b60006020820190508181036000830152610707816106cb565b905091905056fea2646970667358221220faa1f1e398120ac0bb257b52df86c6c55413befc573e39d386681742a081455f64736f6c63430008140033",
  "linkReferences": {},
  "deployedLinkReferences": {}
}