{
  "_format": "hh-sol-artifact-1",
  "contractName": "IdentityZKP",
  "sourceName": "contracts/IdentityZKP.sol",
  "abi": [
    {
      "inputs": [
        {
          "internalType": "address",
          "name": "_verifier",
          "type": "address"
        }
      ],
      "stateMutability": "nonpayable",
      "type": "constructor"
    },
    {
      "anonymous": false,
      "inputs": [
        {
          "indexed": true,
          "internalType": "address",
          "name": "oldAdmin",
          "type": "address"
        },
        {
          "indexed": true,
          "internalType": "address",
          "name": "newAdmin",
          "type": "address"
        }
      ],
      "name": "AdminChanged",
      "type": "event"
    },
    {
      "anonymous": false,
      "inputs": [
        {
          "indexed": true,
          "internalType": "bytes32",
          "name": "userId",
          "type": "bytes32"
        },
        {
          "indexed": false,
          "internalType": "uint256",
          "name": "hash",
          "type": "uint256"
        }
      ],
      "name": "HashRegistered",
      "type": "event"
    },
    {
      "anonymous": false,
      "inputs": [
        {
          "indexed": true,
          "internalType": "bytes32",
          "name": "userId",
          "type": "bytes32"
        }
      ],
      "name": "ProofVerified",
      "type": "event"
    },
    {
      "inputs": [],
      "name": "admin",
      "outputs": [
        {
          "internalType": "address",
          "name": "",
          "type": "address"
        }
      ],
      "stateMutability": "view",
      "type": "function"
    },
    {
      "inputs": [
        {
          "internalType": "bytes32",
          "name": "",
          "type": "bytes32"
        }
      ],
      "name": "isRegistered",
      "outputs": [
        {
          "internalType": "bool",
          "name": "",
          "type": "bool"
        }
      ],
      "stateMutability": "view",
      "type": "function"
    },
    {
      "inputs": [
        {
          "internalType": "bytes32",
          "name": "",
          "type": "bytes32"
        }
      ],
      "name": "isVerified",
      "outputs": [
        {
          "internalType": "bool",
          "name": "",
          "type": "bool"
        }
      ],
      "stateMutability": "view",
      "type": "function"
    },
    {
      "inputs": [
        {
          "internalType": "bytes32",
          "name": "userId",
          "type": "bytes32"
        },
        {
          "internalType": "uint256",
          "name": "hash",
          "type": "uint256"
        }
      ],
      "name": "registerHash",
      "outputs": [],
      "stateMutability": "nonpayable",
      "type": "function"
    },
    {
      "inputs": [
        {
          "internalType": "bytes32",
          "name": "",
          "type": "bytes32"
        }
      ],
      "name": "registeredHash",
      "outputs": [
        {
          "internalType": "uint256",
          "name": "",
          "type": "uint256"
        }
      ],
      "stateMutability": "view",
      "type": "function"
    },
    {
      "inputs": [
        {
          "internalType": "address",
          "name": "newAdmin",
          "type": "address"
        }
      ],
      "name": "setAdmin",
      "outputs": [],
      "stateMutability": "nonpayable",
      "type": "function"
    },
    {
      "inputs": [
        {
          "internalType": "bytes32",
          "name": "userId",
          "type": "bytes32"
        },
        {
          "internalType": "uint256[2]",
          "name": "a",
          "type": "uint256[2]"
        },
        {
          "internalType": "uint256[2][2]",
          "name": "b",
          "type": "uint256[2][2]"
        },
        {
          "internalType": "uint256[2]",
          "name": "c",
          "type": "uint256[2]"
        }
      ],
      "name": "submitProof",
      "outputs": [],
      "stateMutability": "nonpayable",
      "type": "function"
    }
  ],
  "bytecode": "0x608060405234801561001057600080fd5b50604051610f3d380380610f3d8339818101604052810190610032919061011c565b806000806101000a81548173ffffffffffffffffffffffffffffffffffffffff021916908373ffffffffffffffffffffffffffffffffffffffff16021790555033600160006101000a81548173ffffffffffffffffffffffffffffffffffffffff021916908373ffffffffffffffffffffffffffffffffffffffff16021790555050610149565b600080fd5b600073ffffffffffffffffffffffffffffffffffffffff82169050919050565b60006100e9826100be565b9050919050565b6100f9816100de565b811461010457600080fd5b50565b600081519050610116816100f0565b92915050565b600060208284031215610132576101316100b9565b5b600061014084828501610107565b91505092915050565b610de5806101586000396000f3fe608060405234801561001057600080fd5b506004361061007d5760003560e01c8063847dc9a11161005b578063847dc9a1146100fe578063c181b2731461011a578063caa436671461014a578063f851a440146101665761007d565b806327258b2214610082578063634664b4146100b2578063704b6c02146100e2575b600080fd5b61009c6004803603810190610097919061070d565b610184565b6040516100a99190610755565b60405180910390f35b6100cc60048036038101906100c7919061070d565b6101a4565b6040516100d99190610789565b60405180910390f35b6100fc60048036038101906100f79190610802565b6101bc565b005b61011860048036038101906101139190610878565b61037b565b005b610134600480360381019061012f919061070d565b61055a565b6040516101419190610755565b60405180910390f35b610164600480360381019061015f919061090c565b61057a565b005b61016e61068a565b60405161017b919061095b565b60405180910390f35b60036020528060005260406000206000915054906101000a900460ff1681565b60026020528060005260406000206000915090505481565b600160009054906101000a900473ffffffffffffffffffffffffffffffffffffffff1673ffffffffffffffffffffffffffffffffffffffff163373ffffffffffffffffffffffffffffffffffffffff161461024c576040517f08c379a0000000000000000000000000000000000000000000000000000000008152600401610243906109f9565b60405180910390fd5b600073ffffffffffffffffffffffffffffffffffffffff168173ffffffffffffffffffffffffffffffffffffffff16036102bb576040517f08c379a00000000000000000000000000000000000000000000000000000000081526004016102b290610a65565b60405180910390fd5b8073ffffffffffffffffffffffffffffffffffffffff16600160009054906101000a900473ffffffffffffffffffffffffffffffffffffffff1673ffffffffffffffffffffffffffffffffffffffff167f7e644d79422f17c01e4894b5f4f588d331ebfa28653d42ae832dc59e38c9798f60405160405180910390a380600160006101000a81548173ffffffffffffffffffffffffffffffffffffffff021916908373ffffffffffffffffffffffffffffffffffffffff16021790555050565b6003600085815260200190815260200160002060009054906101000a900460ff166103db576040517f08c379a00000000000000000000000000000000000000000000000000000000081526004016103d290610ad1565b60405180910390fd5b6103e36106b0565b60026000868152602001908152602001600020548160006001811061040b5761040a610af1565b5b60200201818152505060008060009054906101000a900473ffffffffffffffffffffffffffffffffffffffff1673ffffffffffffffffffffffffffffffffffffffff166343753b4d868686866040518563ffffffff1660e01b81526004016104769493929190610ca3565b602060405180830381865afa158015610493573d6000803e3d6000fd5b505050506040513d601f19601f820116820180604052508101906104b79190610d16565b9050806104f9576040517f08c379a00000000000000000000000000000000000000000000000000000000081526004016104f090610d8f565b60405180910390fd5b60016004600088815260200190815260200160002060006101000a81548160ff021916908315150217905550857f543093db8d78fd8619586d3a0be12a5736836393feede0888f262888c81ce4c360405160405180910390a2505050505050565b60046020528060005260406000206000915054906101000a900460ff1681565b600160009054906101000a900473ffffffffffffffffffffffffffffffffffffffff1673ffffffffffffffffffffffffffffffffffffffff163373ffffffffffffffffffffffffffffffffffffffff161461060a576040517f08c379a0000000000000000000000000000000000000000000000000000000008152600401610601906109f9565b60405180910390fd5b80600260008481526020019081526020016000208190555060016003600084815260200190815260200160002060006101000a81548160ff021916908315150217905550817f68479d306189c5cb6ae102776384acdf9c4f0ef10b406fa4ba05cc87855542558260405161067e9190610789565b60405180910390a25050565b600160009054906101000a900473ffffffffffffffffffffffffffffffffffffffff1681565b6040518060200160405280600190602082028036833780820191505090505090565b600080fd5b6000819050919050565b6106ea816106d7565b81146106f557600080fd5b50565b600081359050610707816106e1565b92915050565b600060208284031215610723576107226106d2565b5b6000610731848285016106f8565b91505092915050565b60008115159050919050565b61074f8161073a565b82525050565b600060208201905061076a6000830184610746565b92915050565b6000819050919050565b61078381610770565b82525050565b600060208201905061079e600083018461077a565b92915050565b600073ffffffffffffffffffffffffffffffffffffffff82169050919050565b60006107cf826107a4565b9050919050565b6107df816107c4565b81146107ea57600080fd5b50565b6000813590506107fc816107d6565b92915050565b600060208284031215610818576108176106d2565b5b6000610826848285016107ed565b91505092915050565b600080fd5b6000819050826020600202820111156108505761084f61082f565b5b92915050565b6000819050826040600202820111156108725761087161082f565b5b92915050565b6000806000806101208587031215610893576108926106d2565b5b60006108a1878288016106f8565b94505060206108b287828801610834565b93505060606108c387828801610856565b92505060e06108d487828801610834565b91505092959194509250565b6108e981610770565b81146108f457600080fd5b50565b600081359050610906816108e0565b92915050565b60008060408385031215610923576109226106d2565b5b6000610931858286016106f8565b9250506020610942858286016108f7565b9150509250929050565b610955816107c4565b82525050565b6000602082019050610970600083018461094c565b92915050565b600082825260208201905092915050565b7f4f6e6c792061646d696e2063616e20706572666f726d2074686973206163746960008201527f6f6e000000000000000000000000000000000000000000000000000000000000602082015250565b60006109e3602283610976565b91506109ee82610987565b604082019050919050565b60006020820190508181036000830152610a12816109d6565b9050919050565b7f496e76616c6964206e65772061646d696e000000000000000000000000000000600082015250565b6000610a4f601183610976565b9150610a5a82610a19565b602082019050919050565b60006020820190508181036000830152610a7e81610a42565b9050919050565b7f48617368206e6f74207265676973746572656400000000000000000000000000600082015250565b6000610abb601383610976565b9150610ac682610a85565b602082019050919050565b60006020820190508181036000830152610aea81610aae565b9050919050565b7f4e487b7100000000000000000000000000000000000000000000000000000000600052603260045260246000fd5b82818337505050565b610b3560408383610b20565b5050565b600060029050919050565b600081905092915050565b6000819050919050565b610b6560408383610b20565b5050565b6000610b758383610b59565b60408301905092915050565b600082905092915050565b6000604082019050919050565b610ba281610b39565b610bac8184610b44565b9250610bb782610b4f565b8060005b83811015610bf057610bcd8284610b81565b610bd78782610b69565b9650610be283610b8c565b925050600181019050610bbb565b505050505050565b600060019050919050565b600081905092915050565b6000819050919050565b610c2181610770565b82525050565b6000610c338383610c18565b60208301905092915050565b6000602082019050919050565b610c5581610bf8565b610c5f8184610c03565b9250610c6a82610c0e565b8060005b83811015610c9b578151610c828782610c27565b9650610c8d83610c3f565b925050600181019050610c6e565b505050505050565b600061012082019050610cb96000830187610b29565b610cc66040830186610b99565b610cd360c0830185610b29565b610ce1610100830184610c4c565b95945050505050565b610cf38161073a565b8114610cfe57600080fd5b50565b600081519050610d1081610cea565b92915050565b600060208284031215610d2c57610d2b6106d2565b5b6000610d3a84828501610d01565b91505092915050565b7f496e76616c6964205a4b2070726f6f6600000000000000000000000000000000600082015250565b6000610d79601083610976565b9150610d8482610d43565b602082019050919050565b60006020820190508181036000830152610da881610d6c565b905091905056fea264697066735822122002abdf19683b562e77b7037cbfe9c8504a82867274b4c61dcd2f6436022daea964736f6c63430008140033",
  "linkReferences": {},
  "deployedLinkReferences": {}
}