{
  "_format": "hh-sol-artifact-1",
  "contractName": "IdentityZKP",
  "sourceName": "contracts/IdentityZKP.sol",
  "abi": [
    {
      "inputs": [
        {
          "internalType": "address",
          "name": "_verifier",
          "type": "address"
        }
      ],
      "stateMutability": "nonpayable",
      "type": "constructor"
    },
    {
      "anonymous": false,
      "inputs": [
        {
          "indexed": true,
          "internalType": "bytes32",
          "name": "userId",
          "type": "bytes32"
        }
      ],
      "name": "ProofVerified",
      "type": "event"
    },
    {
      "inputs": [
        {
          "internalType": "bytes32",
          "name": "",
          "type": "bytes32"
        }
      ],
      "name": "isVerified",
      "outputs": [
        {
          "internalType": "bool",
          "name": "",
          "type": "bool"
        }
      ],
      "stateMutability": "view",
      "type": "function"
    },
    {
      "inputs": [
        {
          "internalType": "bytes32",
          "name": "userId",
          "type": "bytes32"
        },
        {
          "internalType": "uint256[2]",
          "name": "a",
          "type": "uint256[2]"
        },
        {
          "internalType": "uint256[2][2]",
          "name": "b",
          "type": "uint256[2][2]"
        },
        {
          "internalType": "uint256[2]",
          "name": "c",
          "type": "uint256[2]"
        },
        {
          "internalType": "uint256[1]",
          "name": "publicSignals",
          "type": "uint256[1]"
        }
      ],
      "name": "submitProof",
      "outputs": [],
      "stateMutability": "nonpayable",
      "type": "function"
    }
  ],
  "bytecode": "0x608060405234801561001057600080fd5b506040516106c43803806106c4833981810160405281019061003291906100db565b806000806101000a81548173ffffffffffffffffffffffffffffffffffffffff021916908373ffffffffffffffffffffffffffffffffffffffff16021790555050610108565b600080fd5b600073ffffffffffffffffffffffffffffffffffffffff82169050919050565b60006100a88261007d565b9050919050565b6100b88161009d565b81146100c357600080fd5b50565b6000815190506100d5816100af565b92915050565b6000602082840312156100f1576100f0610078565b5b60006100ff848285016100c6565b91505092915050565b6105ad806101176000396000f3fe608060405234801561001057600080fd5b50600436106100365760003560e01c806316deed801461003b578063c181b27314610057575b600080fd5b61005560048036038101906100509190610292565b610087565b005b610071600480360381019061006c919061030f565b6101cc565b60405161007e9190610357565b60405180910390f35b60008060009054906101000a900473ffffffffffffffffffffffffffffffffffffffff1673ffffffffffffffffffffffffffffffffffffffff166343753b4d868686866040518563ffffffff1660e01b81526004016100e9949392919061045a565b602060405180830381865afa158015610106573d6000803e3d6000fd5b505050506040513d601f19601f8201168201806040525081019061012a91906104cd565b90508061016c576040517f08c379a000000000000000000000000000000000000000000000000000000000815260040161016390610557565b60405180910390fd5b600180600088815260200190815260200160002060006101000a81548160ff021916908315150217905550857f543093db8d78fd8619586d3a0be12a5736836393feede0888f262888c81ce4c360405160405180910390a2505050505050565b60016020528060005260406000206000915054906101000a900460ff1681565b600080fd5b6000819050919050565b610204816101f1565b811461020f57600080fd5b50565b600081359050610221816101fb565b92915050565b600080fd5b60008190508260206002028201111561024857610247610227565b5b92915050565b60008190508260406002028201111561026a57610269610227565b5b92915050565b60008190508260206001028201111561028c5761028b610227565b5b92915050565b600080600080600061014086880312156102af576102ae6101ec565b5b60006102bd88828901610212565b95505060206102ce8882890161022c565b94505060606102df8882890161024e565b93505060e06102f08882890161022c565b92505061012061030288828901610270565b9150509295509295909350565b600060208284031215610325576103246101ec565b5b600061033384828501610212565b91505092915050565b60008115159050919050565b6103518161033c565b82525050565b600060208201905061036c6000830184610348565b92915050565b82818337505050565b61038760408383610372565b5050565b600060029050919050565b600081905092915050565b6000819050919050565b6103b760408383610372565b5050565b60006103c783836103ab565b60408301905092915050565b600082905092915050565b6000604082019050919050565b6103f48161038b565b6103fe8184610396565b9250610409826103a1565b8060005b838110156104425761041f82846103d3565b61042987826103bb565b9650610434836103de565b92505060018101905061040d565b505050505050565b61045660208383610372565b5050565b600061012082019050610470600083018761037b565b61047d60408301866103eb565b61048a60c083018561037b565b61049861010083018461044a565b95945050505050565b6104aa8161033c565b81146104b557600080fd5b50565b6000815190506104c7816104a1565b92915050565b6000602082840312156104e3576104e26101ec565b5b60006104f1848285016104b8565b91505092915050565b600082825260208201905092915050565b7f496e76616c6964205a4b2070726f6f6600000000000000000000000000000000600082015250565b60006105416010836104fa565b915061054c8261050b565b602082019050919050565b6000602082019050818103600083015261057081610534565b905091905056fea264697066735822122006d28101293bf2ee19349e86d58c6ca6e3b0e6ef1fd52dd6643d0b29da3327d564736f6c63430008140033",
  "linkReferences": {},
  "deployedLinkReferences": {}
}