{
  "_format": "hh-sol-artifact-1",
  "contractName": "IdentityMerkleZKP",
  "sourceName": "contracts/IdentityMerkleZKP.sol",
  "abi": [
    {
      "inputs": [
        {
          "internalType": "address",
          "name": "_verifier",
          "type": "address"
        }
      ],
      "stateMutability": "nonpayable",
      "type": "constructor"
    },
    {
      "anonymous": false,
      "inputs": [
        {
          "indexed": true,
          "internalType": "address",
          "name": "oldAdmin",
          "type": "address"
        },
        {
          "indexed": true,
          "internalType": "address",
          "name": "newAdmin",
          "type": "address"
        }
      ],
      "name": "AdminChanged",
      "type": "event"
    },
    {
      "anonymous": false,
      "inputs": [
        {
          "indexed": true,
          "internalType": "bytes32",
          "name": "identityHash",
          "type": "bytes32"
        }
      ],
      "name": "IdentityApproved",
      "type": "event"
    },
    {
      "anonymous": false,
      "inputs": [
        {
          "indexed": true,
          "internalType": "bytes32",
          "name": "identityHash",
          "type": "bytes32"
        }
      ],
      "name": "IdentityRevoked",
      "type": "event"
    },
    {
      "anonymous": false,
      "inputs": [
        {
          "indexed": true,
          "internalType": "address",
          "name": "verifier",
          "type": "address"
        },
        {
          "indexed": true,
          "internalType": "bytes32",
          "name": "identityHash",
          "type": "bytes32"
        }
      ],
      "name": "IdentityVerified",
      "type": "event"
    },
    {
      "anonymous": false,
      "inputs": [
        {
          "indexed": true,
          "internalType": "bytes32",
          "name": "oldRoot",
          "type": "bytes32"
        },
        {
          "indexed": true,
          "internalType": "bytes32",
          "name": "newRoot",
          "type": "bytes32"
        }
      ],
      "name": "MerkleRootUpdated",
      "type": "event"
    },
    {
      "anonymous": false,
      "inputs": [
        {
          "indexed": true,
          "internalType": "bytes32",
          "name": "merkleRoot",
          "type": "bytes32"
        },
        {
          "indexed": false,
          "internalType": "string",
          "name": "ipfsHash",
          "type": "string"
        }
      ],
      "name": "TreeDataUpdated",
      "type": "event"
    },
    {
      "inputs": [],
      "name": "admin",
      "outputs": [
        {
          "internalType": "address",
          "name": "",
          "type": "address"
        }
      ],
      "stateMutability": "view",
      "type": "function"
    },
    {
      "inputs": [
        {
          "internalType": "bytes32",
          "name": "identityHash",
          "type": "bytes32"
        }
      ],
      "name": "approveIdentity",
      "outputs": [],
      "stateMutability": "nonpayable",
      "type": "function"
    },
    {
      "inputs": [
        {
          "internalType": "bytes32",
          "name": "",
          "type": "bytes32"
        }
      ],
      "name": "approvedIdentities",
      "outputs": [
        {
          "internalType": "bool",
          "name": "",
          "type": "bool"
        }
      ],
      "stateMutability": "view",
      "type": "function"
    },
    {
      "inputs": [
        {
          "internalType": "uint256",
          "name": "nik",
          "type": "uint256"
        },
        {
          "internalType": "bytes32",
          "name": "nama",
          "type": "bytes32"
        },
        {
          "internalType": "uint256",
          "name": "ttl",
          "type": "uint256"
        },
        {
          "internalType": "bytes32",
          "name": "key",
          "type": "bytes32"
        }
      ],
      "name": "computeIdentityHash",
      "outputs": [
        {
          "internalType": "bytes32",
          "name": "",
          "type": "bytes32"
        }
      ],
      "stateMutability": "pure",
      "type": "function"
    },
    {
      "inputs": [],
      "name": "currentMerkleRoot",
      "outputs": [
        {
          "internalType": "bytes32",
          "name": "",
          "type": "bytes32"
        }
      ],
      "stateMutability": "view",
      "type": "function"
    },
    {
      "inputs": [],
      "name": "currentTreeDataIPFS",
      "outputs": [
        {
          "internalType": "string",
          "name": "",
          "type": "string"
        }
      ],
      "stateMutability": "view",
      "type": "function"
    },
    {
      "inputs": [],
      "name": "getContractInfo",
      "outputs": [
        {
          "internalType": "bytes32",
          "name": "merkleRoot",
          "type": "bytes32"
        },
        {
          "internalType": "uint256",
          "name": "totalIdentities",
          "type": "uint256"
        },
        {
          "internalType": "address",
          "name": "contractAdmin",
          "type": "address"
        }
      ],
      "stateMutability": "view",
      "type": "function"
    },
    {
      "inputs": [],
      "name": "getCurrentTreeDataIPFS",
      "outputs": [
        {
          "internalType": "string",
          "name": "",
          "type": "string"
        }
      ],
      "stateMutability": "view",
      "type": "function"
    },
    {
      "inputs": [
        {
          "internalType": "bytes32",
          "name": "identityHash",
          "type": "bytes32"
        }
      ],
      "name": "getIdentityInfo",
      "outputs": [
        {
          "internalType": "bool",
          "name": "approved",
          "type": "bool"
        },
        {
          "internalType": "uint256",
          "name": "approvalBlock",
          "type": "uint256"
        }
      ],
      "stateMutability": "view",
      "type": "function"
    },
    {
      "inputs": [
        {
          "internalType": "bytes32",
          "name": "",
          "type": "bytes32"
        }
      ],
      "name": "identityApprovalBlock",
      "outputs": [
        {
          "internalType": "uint256",
          "name": "",
          "type": "uint256"
        }
      ],
      "stateMutability": "view",
      "type": "function"
    },
    {
      "inputs": [
        {
          "internalType": "bytes32",
          "name": "identityHash",
          "type": "bytes32"
        }
      ],
      "name": "isIdentityApproved",
      "outputs": [
        {
          "internalType": "bool",
          "name": "",
          "type": "bool"
        }
      ],
      "stateMutability": "view",
      "type": "function"
    },
    {
      "inputs": [
        {
          "internalType": "bytes32",
          "name": "identityHash",
          "type": "bytes32"
        }
      ],
      "name": "revokeIdentity",
      "outputs": [],
      "stateMutability": "nonpayable",
      "type": "function"
    },
    {
      "inputs": [],
      "name": "totalApprovedIdentities",
      "outputs": [
        {
          "internalType": "uint256",
          "name": "",
          "type": "uint256"
        }
      ],
      "stateMutability": "view",
      "type": "function"
    },
    {
      "inputs": [
        {
          "internalType": "address",
          "name": "newAdmin",
          "type": "address"
        }
      ],
      "name": "transferAdmin",
      "outputs": [],
      "stateMutability": "nonpayable",
      "type": "function"
    },
    {
      "inputs": [
        {
          "internalType": "bytes32",
          "name": "newRoot",
          "type": "bytes32"
        },
        {
          "internalType": "string",
          "name": "ipfsHash",
          "type": "string"
        }
      ],
      "name": "updateMerkleRoot",
      "outputs": [],
      "stateMutability": "nonpayable",
      "type": "function"
    },
    {
      "inputs": [
        {
          "internalType": "bytes32",
          "name": "newRoot",
          "type": "bytes32"
        },
        {
          "internalType": "bytes32[]",
          "name": "identityHashes",
          "type": "bytes32[]"
        },
        {
          "internalType": "string",
          "name": "ipfsHash",
          "type": "string"
        }
      ],
      "name": "updateMerkleRootWithIdentities",
      "outputs": [],
      "stateMutability": "nonpayable",
      "type": "function"
    },
    {
      "inputs": [
        {
          "internalType": "uint256[2]",
          "name": "a",
          "type": "uint256[2]"
        },
        {
          "internalType": "uint256[2][2]",
          "name": "b",
          "type": "uint256[2][2]"
        },
        {
          "internalType": "uint256[2]",
          "name": "c",
          "type": "uint256[2]"
        },
        {
          "internalType": "bytes32",
          "name": "identityHash",
          "type": "bytes32"
        }
      ],
      "name": "verifyIdentity",
      "outputs": [
        {
          "internalType": "bool",
          "name": "",
          "type": "bool"
        }
      ],
      "stateMutability": "nonpayable",
      "type": "function"
    }
  ],
  "bytecode": "0x60806040523480156200001157600080fd5b50604051620027643803806200276483398181016040528101906200003791906200019b565b600073ffffffffffffffffffffffffffffffffffffffff168173ffffffffffffffffffffffffffffffffffffffff1603620000a9576040517f08c379a0000000000000000000000000000000000000000000000000000000008152600401620000a0906200022e565b60405180910390fd5b806000806101000a81548173ffffffffffffffffffffffffffffffffffffffff021916908373ffffffffffffffffffffffffffffffffffffffff16021790555033600660006101000a81548173ffffffffffffffffffffffffffffffffffffffff021916908373ffffffffffffffffffffffffffffffffffffffff1602179055505062000250565b600080fd5b600073ffffffffffffffffffffffffffffffffffffffff82169050919050565b6000620001638262000136565b9050919050565b620001758162000156565b81146200018157600080fd5b50565b60008151905062000195816200016a565b92915050565b600060208284031215620001b457620001b362000131565b5b6000620001c48482850162000184565b91505092915050565b600082825260208201905092915050565b7f496e76616c696420766572696669657220616464726573730000000000000000600082015250565b600062000216601883620001cd565b91506200022382620001de565b602082019050919050565b60006020820190508181036000830152620002498162000207565b9050919050565b61250480620002606000396000f3fe608060405234801561001057600080fd5b506004361061010b5760003560e01c80639cee2291116100a2578063cc71846311610071578063cc718463146102bd578063d806be5a146102ed578063e48034b51461031d578063f851a44014610339578063fed888ba146103575761010b565b80639cee2291146102495780639ea9719014610265578063a13398f214610283578063cb0a2fa4146102a15761010b565b8063632017fe116100de578063632017fe146101ac57806375829def146101dc5780637cc1f867146101f85780639b2b277e146102185761010b565b8063327cb7061461011057806337215def14610140578063392dc7461461015e57806358090a741461018e575b600080fd5b61012a600480360381019061012591906112bc565b610373565b6040516101379190611304565b60405180910390f35b610148610393565b60405161015591906113af565b60405180910390f35b61017860048036038101906101739190611407565b610421565b604051610185919061147d565b60405180910390f35b61019661045a565b6040516101a391906114a7565b60405180910390f35b6101c660048036038101906101c191906112bc565b610460565b6040516101d39190611304565b60405180910390f35b6101f660048036038101906101f19190611520565b61048a565b005b6102006106df565b60405161020f9392919061155c565b60405180910390f35b610232600480360381019061022d91906112bc565b610718565b604051610240929190611593565b60405180910390f35b610263600480360381019061025e9190611677565b610759565b005b61026d610ac6565b60405161027a919061147d565b60405180910390f35b61028b610acc565b60405161029891906113af565b60405180910390f35b6102bb60048036038101906102b691906112bc565b610b5e565b005b6102d760048036038101906102d29190611750565b610d20565b6040516102e49190611304565b60405180910390f35b610307600480360381019061030291906112bc565b610ecb565b60405161031491906114a7565b60405180910390f35b610337600480360381019061033291906117b9565b610ee3565b005b6103416110d0565b60405161034e9190611819565b60405180910390f35b610371600480360381019061036c91906112bc565b6110f6565b005b60036020528060005260406000206000915054906101000a900460ff1681565b600280546103a090611863565b80601f01602080910402602001604051908101604052809291908181526020018280546103cc90611863565b80156104195780601f106103ee57610100808354040283529160200191610419565b820191906000526020600020905b8154815290600101906020018083116103fc57829003601f168201915b505050505081565b60008484848460405160200161043a94939291906118d6565b604051602081830303815290604052805190602001209050949350505050565b60055481565b60006003600083815260200190815260200160002060009054906101000a900460ff169050919050565b600660009054906101000a900473ffffffffffffffffffffffffffffffffffffffff1673ffffffffffffffffffffffffffffffffffffffff163373ffffffffffffffffffffffffffffffffffffffff161461051a576040517f08c379a000000000000000000000000000000000000000000000000000000000815260040161051190611996565b60405180910390fd5b600073ffffffffffffffffffffffffffffffffffffffff168173ffffffffffffffffffffffffffffffffffffffff1603610589576040517f08c379a000000000000000000000000000000000000000000000000000000000815260040161058090611a02565b60405180910390fd5b600660009054906101000a900473ffffffffffffffffffffffffffffffffffffffff1673ffffffffffffffffffffffffffffffffffffffff168173ffffffffffffffffffffffffffffffffffffffff1603610619576040517f08c379a000000000000000000000000000000000000000000000000000000000815260040161061090611a6e565b60405180910390fd5b6000600660009054906101000a900473ffffffffffffffffffffffffffffffffffffffff16905081600660006101000a81548173ffffffffffffffffffffffffffffffffffffffff021916908373ffffffffffffffffffffffffffffffffffffffff1602179055508173ffffffffffffffffffffffffffffffffffffffff168173ffffffffffffffffffffffffffffffffffffffff167f7e644d79422f17c01e4894b5f4f588d331ebfa28653d42ae832dc59e38c9798f60405160405180910390a35050565b6000806000600154600554600660009054906101000a900473ffffffffffffffffffffffffffffffffffffffff16925092509250909192565b6000806003600084815260200190815260200160002060009054906101000a900460ff16600460008581526020019081526020016000205491509150915091565b600660009054906101000a900473ffffffffffffffffffffffffffffffffffffffff1673ffffffffffffffffffffffffffffffffffffffff163373ffffffffffffffffffffffffffffffffffffffff16146107e9576040517f08c379a00000000000000000000000000000000000000000000000000000000081526004016107e090611996565b60405180910390fd5b6000801b850361082e576040517f08c379a000000000000000000000000000000000000000000000000000000000815260040161082590611ada565b60405180910390fd5b60008484905011610874576040517f08c379a000000000000000000000000000000000000000000000000000000000815260040161086b90611b46565b60405180910390fd5b60648484905011156108bb576040517f08c379a00000000000000000000000000000000000000000000000000000000081526004016108b290611bb2565b60405180910390fd5b60008282905011610901576040517f08c379a00000000000000000000000000000000000000000000000000000000081526004016108f890611c1e565b60405180910390fd5b6000600154905085600181905550828260029182610920929190611e24565b5060005b85859050811015610a5557600086868381811061094457610943611ef4565b5b9050602002013590506000801b8103610992576040517f08c379a000000000000000000000000000000000000000000000000000000000815260040161098990611f6f565b60405180910390fd5b6003600082815260200190815260200160002060009054906101000a900460ff16610a415760016003600083815260200190815260200160002060006101000a81548160ff02191690831515021790555043600460008381526020019081526020016000208190555060056000815480929190610a0e90611fbe565b9190505550807fecb880bc52ee28af3c31a4023d2428c8f08040c5510222cb22d062bf7306690e60405160405180910390a25b508080610a4d90611fbe565b915050610924565b5085817ffd69edeceaf1d6832d935be1fba54ca93bf17e71520c6c9ffc08d6e9529f875760405160405180910390a3857f213afde0e22e0a6e1cf298f2ad540eda855b2715cf4c07212948f109896224038484604051610ab6929190612042565b60405180910390a2505050505050565b60015481565b606060028054610adb90611863565b80601f0160208091040260200160405190810160405280929190818152602001828054610b0790611863565b8015610b545780601f10610b2957610100808354040283529160200191610b54565b820191906000526020600020905b815481529060010190602001808311610b3757829003601f168201915b5050505050905090565b600660009054906101000a900473ffffffffffffffffffffffffffffffffffffffff1673ffffffffffffffffffffffffffffffffffffffff163373ffffffffffffffffffffffffffffffffffffffff1614610bee576040517f08c379a0000000000000000000000000000000000000000000000000000000008152600401610be590611996565b60405180910390fd5b6000801b8103610c33576040517f08c379a0000000000000000000000000000000000000000000000000000000008152600401610c2a90611f6f565b60405180910390fd5b6003600082815260200190815260200160002060009054906101000a900460ff1615610c94576040517f08c379a0000000000000000000000000000000000000000000000000000000008152600401610c8b906120b2565b60405180910390fd5b60016003600083815260200190815260200160002060006101000a81548160ff02191690831515021790555043600460008381526020019081526020016000208190555060056000815480929190610ceb90611fbe565b9190505550807fecb880bc52ee28af3c31a4023d2428c8f08040c5510222cb22d062bf7306690e60405160405180910390a250565b60008060001b60015403610d69576040517f08c379a0000000000000000000000000000000000000000000000000000000008152600401610d609061211e565b60405180910390fd5b610d7161125a565b60015460001c81600060018110610d8b57610d8a611ef4565b5b60200201818152505060008060009054906101000a900473ffffffffffffffffffffffffffffffffffffffff1673ffffffffffffffffffffffffffffffffffffffff166343753b4d888888866040518563ffffffff1660e01b8152600401610df694939291906122c1565b602060405180830381865afa158015610e13573d6000803e3d6000fd5b505050506040513d601f19601f82011682018060405250810190610e379190612334565b905080610e79576040517f08c379a0000000000000000000000000000000000000000000000000000000008152600401610e70906123ad565b60405180910390fd5b833373ffffffffffffffffffffffffffffffffffffffff167fb995343050bbaac74530262032b1b2520405a1ae1ce825b4b56917c29960ca0160405160405180910390a3600192505050949350505050565b60046020528060005260406000206000915090505481565b600660009054906101000a900473ffffffffffffffffffffffffffffffffffffffff1673ffffffffffffffffffffffffffffffffffffffff163373ffffffffffffffffffffffffffffffffffffffff1614610f73576040517f08c379a0000000000000000000000000000000000000000000000000000000008152600401610f6a90611996565b60405180910390fd5b6000801b8303610fb8576040517f08c379a0000000000000000000000000000000000000000000000000000000008152600401610faf90611ada565b60405180910390fd5b6001548303610ffc576040517f08c379a0000000000000000000000000000000000000000000000000000000008152600401610ff390612419565b60405180910390fd5b60008282905011611042576040517f08c379a000000000000000000000000000000000000000000000000000000000815260040161103990611c1e565b60405180910390fd5b6000600154905083600181905550828260029182611061929190611e24565b5083817ffd69edeceaf1d6832d935be1fba54ca93bf17e71520c6c9ffc08d6e9529f875760405160405180910390a3837f213afde0e22e0a6e1cf298f2ad540eda855b2715cf4c07212948f1098962240384846040516110c2929190612042565b60405180910390a250505050565b600660009054906101000a900473ffffffffffffffffffffffffffffffffffffffff1681565b600660009054906101000a900473ffffffffffffffffffffffffffffffffffffffff1673ffffffffffffffffffffffffffffffffffffffff163373ffffffffffffffffffffffffffffffffffffffff1614611186576040517f08c379a000000000000000000000000000000000000000000000000000000000815260040161117d90611996565b60405180910390fd5b6003600082815260200190815260200160002060009054906101000a900460ff166111e6576040517f08c379a00000000000000000000000000000000000000000000000000000000081526004016111dd90612485565b60405180910390fd5b60006003600083815260200190815260200160002060006101000a81548160ff02191690831515021790555060056000815480929190611225906124a5565b9190505550807f6635fb23ae9865dd00ccafdab17b138e48723a8e38446342a69f5bf6d6ad02c360405160405180910390a250565b6040518060200160405280600190602082028036833780820191505090505090565b600080fd5b600080fd5b6000819050919050565b61129981611286565b81146112a457600080fd5b50565b6000813590506112b681611290565b92915050565b6000602082840312156112d2576112d161127c565b5b60006112e0848285016112a7565b91505092915050565b60008115159050919050565b6112fe816112e9565b82525050565b600060208201905061131960008301846112f5565b92915050565b600081519050919050565b600082825260208201905092915050565b60005b8381101561135957808201518184015260208101905061133e565b60008484015250505050565b6000601f19601f8301169050919050565b60006113818261131f565b61138b818561132a565b935061139b81856020860161133b565b6113a481611365565b840191505092915050565b600060208201905081810360008301526113c98184611376565b905092915050565b6000819050919050565b6113e4816113d1565b81146113ef57600080fd5b50565b600081359050611401816113db565b92915050565b600080600080608085870312156114215761142061127c565b5b600061142f878288016113f2565b9450506020611440878288016112a7565b9350506040611451878288016113f2565b9250506060611462878288016112a7565b91505092959194509250565b61147781611286565b82525050565b6000602082019050611492600083018461146e565b92915050565b6114a1816113d1565b82525050565b60006020820190506114bc6000830184611498565b92915050565b600073ffffffffffffffffffffffffffffffffffffffff82169050919050565b60006114ed826114c2565b9050919050565b6114fd816114e2565b811461150857600080fd5b50565b60008135905061151a816114f4565b92915050565b6000602082840312156115365761153561127c565b5b60006115448482850161150b565b91505092915050565b611556816114e2565b82525050565b6000606082019050611571600083018661146e565b61157e6020830185611498565b61158b604083018461154d565b949350505050565b60006040820190506115a860008301856112f5565b6115b56020830184611498565b9392505050565b600080fd5b600080fd5b600080fd5b60008083601f8401126115e1576115e06115bc565b5b8235905067ffffffffffffffff8111156115fe576115fd6115c1565b5b60208301915083602082028301111561161a576116196115c6565b5b9250929050565b60008083601f840112611637576116366115bc565b5b8235905067ffffffffffffffff811115611654576116536115c1565b5b6020830191508360018202830111156116705761166f6115c6565b5b9250929050565b6000806000806000606086880312156116935761169261127c565b5b60006116a1888289016112a7565b955050602086013567ffffffffffffffff8111156116c2576116c1611281565b5b6116ce888289016115cb565b9450945050604086013567ffffffffffffffff8111156116f1576116f0611281565b5b6116fd88828901611621565b92509250509295509295909350565b600081905082602060020282011115611728576117276115c6565b5b92915050565b60008190508260406002028201111561174a576117496115c6565b5b92915050565b600080600080610120858703121561176b5761176a61127c565b5b60006117798782880161170c565b945050604061178a8782880161172e565b93505060c061179b8782880161170c565b9250506101006117ad878288016112a7565b91505092959194509250565b6000806000604084860312156117d2576117d161127c565b5b60006117e0868287016112a7565b935050602084013567ffffffffffffffff81111561180157611800611281565b5b61180d86828701611621565b92509250509250925092565b600060208201905061182e600083018461154d565b92915050565b7f4e487b7100000000000000000000000000000000000000000000000000000000600052602260045260246000fd5b6000600282049050600182168061187b57607f821691505b60208210810361188e5761188d611834565b5b50919050565b6000819050919050565b6118af6118aa826113d1565b611894565b82525050565b6000819050919050565b6118d06118cb82611286565b6118b5565b82525050565b60006118e2828761189e565b6020820191506118f282866118bf565b602082019150611902828561189e565b60208201915061191282846118bf565b60208201915081905095945050505050565b7f4f6e6c792061646d696e2063616e20706572666f726d2074686973206163746960008201527f6f6e000000000000000000000000000000000000000000000000000000000000602082015250565b600061198060228361132a565b915061198b82611924565b604082019050919050565b600060208201905081810360008301526119af81611973565b9050919050565b7f496e76616c6964206e65772061646d696e206164647265737300000000000000600082015250565b60006119ec60198361132a565b91506119f7826119b6565b602082019050919050565b60006020820190508181036000830152611a1b816119df565b9050919050565b7f416c72656164792061646d696e00000000000000000000000000000000000000600082015250565b6000611a58600d8361132a565b9150611a6382611a22565b602082019050919050565b60006020820190508181036000830152611a8781611a4b565b9050919050565b7f496e76616c696420726f6f742068617368000000000000000000000000000000600082015250565b6000611ac460118361132a565b9150611acf82611a8e565b602082019050919050565b60006020820190508181036000830152611af381611ab7565b9050919050565b7f456d707479206964656e74697469657320617272617900000000000000000000600082015250565b6000611b3060168361132a565b9150611b3b82611afa565b602082019050919050565b60006020820190508181036000830152611b5f81611b23565b9050919050565b7f546f6f206d616e79206964656e74697469657300000000000000000000000000600082015250565b6000611b9c60138361132a565b9150611ba782611b66565b602082019050919050565b60006020820190508181036000830152611bcb81611b8f565b9050919050565b7f456d707479204950465320686173680000000000000000000000000000000000600082015250565b6000611c08600f8361132a565b9150611c1382611bd2565b602082019050919050565b60006020820190508181036000830152611c3781611bfb565b9050919050565b600082905092915050565b7f4e487b7100000000000000000000000000000000000000000000000000000000600052604160045260246000fd5b60008190508160005260206000209050919050565b60006020601f8301049050919050565b600082821b905092915050565b600060088302611cda7fffffffffffffffffffffffffffffffffffffffffffffffffffffffffffffffff82611c9d565b611ce48683611c9d565b95508019841693508086168417925050509392505050565b6000819050919050565b6000611d21611d1c611d17846113d1565b611cfc565b6113d1565b9050919050565b6000819050919050565b611d3b83611d06565b611d4f611d4782611d28565b848454611caa565b825550505050565b600090565b611d64611d57565b611d6f818484611d32565b505050565b5b81811015611d9357611d88600082611d5c565b600181019050611d75565b5050565b601f821115611dd857611da981611c78565b611db284611c8d565b81016020851015611dc1578190505b611dd5611dcd85611c8d565b830182611d74565b50505b505050565b600082821c905092915050565b6000611dfb60001984600802611ddd565b1980831691505092915050565b6000611e148383611dea565b9150826002028217905092915050565b611e2e8383611c3e565b67ffffffffffffffff811115611e4757611e46611c49565b5b611e518254611863565b611e5c828285611d97565b6000601f831160018114611e8b5760008415611e79578287013590505b611e838582611e08565b865550611eeb565b601f198416611e9986611c78565b60005b82811015611ec157848901358255600182019150602085019450602081019050611e9c565b86831015611ede5784890135611eda601f891682611dea565b8355505b6001600288020188555050505b50505050505050565b7f4e487b7100000000000000000000000000000000000000000000000000000000600052603260045260246000fd5b7f496e76616c6964206964656e7469747920686173680000000000000000000000600082015250565b6000611f5960158361132a565b9150611f6482611f23565b602082019050919050565b60006020820190508181036000830152611f8881611f4c565b9050919050565b7f4e487b7100000000000000000000000000000000000000000000000000000000600052601160045260246000fd5b6000611fc9826113d1565b91507fffffffffffffffffffffffffffffffffffffffffffffffffffffffffffffffff8203611ffb57611ffa611f8f565b5b600182019050919050565b82818337600083830152505050565b6000612021838561132a565b935061202e838584612006565b61203783611365565b840190509392505050565b6000602082019050818103600083015261205d818486612015565b90509392505050565b7f416c726561647920617070726f76656400000000000000000000000000000000600082015250565b600061209c60108361132a565b91506120a782612066565b602082019050919050565b600060208201905081810360008301526120cb8161208f565b9050919050565b7f4e6f204d65726b6c6520726f6f74207365740000000000000000000000000000600082015250565b600061210860128361132a565b9150612113826120d2565b602082019050919050565b60006020820190508181036000830152612137816120fb565b9050919050565b82818337505050565b6121536040838361213e565b5050565b600060029050919050565b600081905092915050565b6000819050919050565b6121836040838361213e565b5050565b60006121938383612177565b60408301905092915050565b600082905092915050565b6000604082019050919050565b6121c081612157565b6121ca8184612162565b92506121d58261216d565b8060005b8381101561220e576121eb828461219f565b6121f58782612187565b9650612200836121aa565b9250506001810190506121d9565b505050505050565b600060019050919050565b600081905092915050565b6000819050919050565b61223f816113d1565b82525050565b60006122518383612236565b60208301905092915050565b6000602082019050919050565b61227381612216565b61227d8184612221565b92506122888261222c565b8060005b838110156122b95781516122a08782612245565b96506122ab8361225d565b92505060018101905061228c565b505050505050565b6000610120820190506122d76000830187612147565b6122e460408301866121b7565b6122f160c0830185612147565b6122ff61010083018461226a565b95945050505050565b612311816112e9565b811461231c57600080fd5b50565b60008151905061232e81612308565b92915050565b60006020828403121561234a5761234961127c565b5b60006123588482850161231f565b91505092915050565b7f496e76616c6964205a4b2070726f6f6600000000000000000000000000000000600082015250565b600061239760108361132a565b91506123a282612361565b602082019050919050565b600060208201905081810360008301526123c68161238a565b9050919050565b7f526f6f7420616c72656164792063757272656e74000000000000000000000000600082015250565b600061240360148361132a565b915061240e826123cd565b602082019050919050565b60006020820190508181036000830152612432816123f6565b9050919050565b7f4964656e74697479206e6f7420617070726f7665640000000000000000000000600082015250565b600061246f60158361132a565b915061247a82612439565b602082019050919050565b6000602082019050818103600083015261249e81612462565b9050919050565b60006124b0826113d1565b9150600082036124c3576124c2611f8f565b5b60018203905091905056fea2646970667358221220584b6759f89be2e498d0dde94cdb8dbccdce10cd0c2da80d13470a6982502bf464736f6c63430008140033",
  "linkReferences": {},
  "deployedLinkReferences": {}
}