{
  "_format": "hh-sol-artifact-1",
  "contractName": "IdentityMerkleZKP",
  "sourceName": "contracts/IdentityMerkleZKP.sol",
  "abi": [
    {
      "inputs": [
        {
          "internalType": "address",
          "name": "_verifier",
          "type": "address"
        }
      ],
      "stateMutability": "nonpayable",
      "type": "constructor"
    },
    {
      "anonymous": false,
      "inputs": [
        {
          "indexed": true,
          "internalType": "address",
          "name": "oldAdmin",
          "type": "address"
        },
        {
          "indexed": true,
          "internalType": "address",
          "name": "newAdmin",
          "type": "address"
        }
      ],
      "name": "AdminChanged",
      "type": "event"
    },
    {
      "anonymous": false,
      "inputs": [
        {
          "indexed": true,
          "internalType": "bytes32",
          "name": "identityHash",
          "type": "bytes32"
        }
      ],
      "name": "IdentityApproved",
      "type": "event"
    },
    {
      "anonymous": false,
      "inputs": [
        {
          "indexed": true,
          "internalType": "bytes32",
          "name": "identityHash",
          "type": "bytes32"
        }
      ],
      "name": "IdentityRevoked",
      "type": "event"
    },
    {
      "anonymous": false,
      "inputs": [
        {
          "indexed": true,
          "internalType": "address",
          "name": "verifier",
          "type": "address"
        },
        {
          "indexed": true,
          "internalType": "bytes32",
          "name": "identityHash",
          "type": "bytes32"
        }
      ],
      "name": "IdentityVerified",
      "type": "event"
    },
    {
      "anonymous": false,
      "inputs": [
        {
          "indexed": true,
          "internalType": "bytes32",
          "name": "oldRoot",
          "type": "bytes32"
        },
        {
          "indexed": true,
          "internalType": "bytes32",
          "name": "newRoot",
          "type": "bytes32"
        }
      ],
      "name": "MerkleRootUpdated",
      "type": "event"
    },
    {
      "inputs": [],
      "name": "admin",
      "outputs": [
        {
          "internalType": "address",
          "name": "",
          "type": "address"
        }
      ],
      "stateMutability": "view",
      "type": "function"
    },
    {
      "inputs": [
        {
          "internalType": "bytes32",
          "name": "identityHash",
          "type": "bytes32"
        }
      ],
      "name": "approveIdentity",
      "outputs": [],
      "stateMutability": "nonpayable",
      "type": "function"
    },
    {
      "inputs": [
        {
          "internalType": "bytes32",
          "name": "",
          "type": "bytes32"
        }
      ],
      "name": "approvedIdentities",
      "outputs": [
        {
          "internalType": "bool",
          "name": "",
          "type": "bool"
        }
      ],
      "stateMutability": "view",
      "type": "function"
    },
    {
      "inputs": [
        {
          "internalType": "uint256",
          "name": "nik",
          "type": "uint256"
        },
        {
          "internalType": "bytes32",
          "name": "nama",
          "type": "bytes32"
        },
        {
          "internalType": "uint256",
          "name": "ttl",
          "type": "uint256"
        },
        {
          "internalType": "bytes32",
          "name": "key",
          "type": "bytes32"
        }
      ],
      "name": "computeIdentityHash",
      "outputs": [
        {
          "internalType": "bytes32",
          "name": "",
          "type": "bytes32"
        }
      ],
      "stateMutability": "pure",
      "type": "function"
    },
    {
      "inputs": [],
      "name": "currentMerkleRoot",
      "outputs": [
        {
          "internalType": "bytes32",
          "name": "",
          "type": "bytes32"
        }
      ],
      "stateMutability": "view",
      "type": "function"
    },
    {
      "inputs": [],
      "name": "getContractInfo",
      "outputs": [
        {
          "internalType": "bytes32",
          "name": "merkleRoot",
          "type": "bytes32"
        },
        {
          "internalType": "uint256",
          "name": "totalIdentities",
          "type": "uint256"
        },
        {
          "internalType": "address",
          "name": "contractAdmin",
          "type": "address"
        }
      ],
      "stateMutability": "view",
      "type": "function"
    },
    {
      "inputs": [
        {
          "internalType": "bytes32",
          "name": "identityHash",
          "type": "bytes32"
        }
      ],
      "name": "getIdentityInfo",
      "outputs": [
        {
          "internalType": "bool",
          "name": "approved",
          "type": "bool"
        },
        {
          "internalType": "uint256",
          "name": "approvalBlock",
          "type": "uint256"
        }
      ],
      "stateMutability": "view",
      "type": "function"
    },
    {
      "inputs": [
        {
          "internalType": "bytes32",
          "name": "",
          "type": "bytes32"
        }
      ],
      "name": "identityApprovalBlock",
      "outputs": [
        {
          "internalType": "uint256",
          "name": "",
          "type": "uint256"
        }
      ],
      "stateMutability": "view",
      "type": "function"
    },
    {
      "inputs": [
        {
          "internalType": "bytes32",
          "name": "identityHash",
          "type": "bytes32"
        }
      ],
      "name": "isIdentityApproved",
      "outputs": [
        {
          "internalType": "bool",
          "name": "",
          "type": "bool"
        }
      ],
      "stateMutability": "view",
      "type": "function"
    },
    {
      "inputs": [
        {
          "internalType": "bytes32",
          "name": "identityHash",
          "type": "bytes32"
        }
      ],
      "name": "revokeIdentity",
      "outputs": [],
      "stateMutability": "nonpayable",
      "type": "function"
    },
    {
      "inputs": [],
      "name": "totalApprovedIdentities",
      "outputs": [
        {
          "internalType": "uint256",
          "name": "",
          "type": "uint256"
        }
      ],
      "stateMutability": "view",
      "type": "function"
    },
    {
      "inputs": [
        {
          "internalType": "address",
          "name": "newAdmin",
          "type": "address"
        }
      ],
      "name": "transferAdmin",
      "outputs": [],
      "stateMutability": "nonpayable",
      "type": "function"
    },
    {
      "inputs": [
        {
          "internalType": "bytes32",
          "name": "newRoot",
          "type": "bytes32"
        }
      ],
      "name": "updateMerkleRoot",
      "outputs": [],
      "stateMutability": "nonpayable",
      "type": "function"
    },
    {
      "inputs": [
        {
          "internalType": "bytes32",
          "name": "newRoot",
          "type": "bytes32"
        },
        {
          "internalType": "bytes32[]",
          "name": "identityHashes",
          "type": "bytes32[]"
        }
      ],
      "name": "updateMerkleRootWithIdentities",
      "outputs": [],
      "stateMutability": "nonpayable",
      "type": "function"
    },
    {
      "inputs": [
        {
          "internalType": "uint256[2]",
          "name": "a",
          "type": "uint256[2]"
        },
        {
          "internalType": "uint256[2][2]",
          "name": "b",
          "type": "uint256[2][2]"
        },
        {
          "internalType": "uint256[2]",
          "name": "c",
          "type": "uint256[2]"
        },
        {
          "internalType": "bytes32",
          "name": "identityHash",
          "type": "bytes32"
        }
      ],
      "name": "verifyIdentity",
      "outputs": [
        {
          "internalType": "bool",
          "name": "",
          "type": "bool"
        }
      ],
      "stateMutability": "nonpayable",
      "type": "function"
    }
  ],
  "bytecode": "0x60806040523480156200001157600080fd5b5060405162001f5c38038062001f5c83398181016040528101906200003791906200019b565b600073ffffffffffffffffffffffffffffffffffffffff168173ffffffffffffffffffffffffffffffffffffffff1603620000a9576040517f08c379a0000000000000000000000000000000000000000000000000000000008152600401620000a0906200022e565b60405180910390fd5b806000806101000a81548173ffffffffffffffffffffffffffffffffffffffff021916908373ffffffffffffffffffffffffffffffffffffffff16021790555033600560006101000a81548173ffffffffffffffffffffffffffffffffffffffff021916908373ffffffffffffffffffffffffffffffffffffffff1602179055505062000250565b600080fd5b600073ffffffffffffffffffffffffffffffffffffffff82169050919050565b6000620001638262000136565b9050919050565b620001758162000156565b81146200018157600080fd5b50565b60008151905062000195816200016a565b92915050565b600060208284031215620001b457620001b362000131565b5b6000620001c48482850162000184565b91505092915050565b600082825260208201905092915050565b7f496e76616c696420766572696669657220616464726573730000000000000000600082015250565b600062000216601883620001cd565b91506200022382620001de565b602082019050919050565b60006020820190508181036000830152620002498162000207565b9050919050565b611cfc80620002606000396000f3fe608060405234801561001057600080fd5b50600436106100f55760003560e01c80639b2b277e11610097578063cc71846311610066578063cc71846314610287578063d806be5a146102b7578063f851a440146102e7578063fed888ba14610305576100f5565b80639b2b277e146102005780639ea9719014610231578063cb0a2fa41461024f578063cc1cd2441461026b576100f5565b806358090a74116100d357806358090a7414610176578063632017fe1461019457806375829def146101c45780637cc1f867146101e0576100f5565b8063327cb706146100fa578063392dc7461461012a5780634783f0ef1461015a575b600080fd5b610114600480360381019061010f9190611022565b610321565b604051610121919061106a565b60405180910390f35b610144600480360381019061013f91906110bb565b610341565b6040516101519190611131565b60405180910390f35b610174600480360381019061016f9190611022565b61037a565b005b61017e6104d3565b60405161018b919061115b565b60405180910390f35b6101ae60048036038101906101a99190611022565b6104d9565b6040516101bb919061106a565b60405180910390f35b6101de60048036038101906101d991906111d4565b610503565b005b6101e8610758565b6040516101f793929190611210565b60405180910390f35b61021a60048036038101906102159190611022565b610791565b604051610228929190611247565b60405180910390f35b6102396107d2565b6040516102469190611131565b60405180910390f35b61026960048036038101906102649190611022565b6107d8565b005b610285600480360381019061028091906112d5565b61099a565b005b6102a1600480360381019061029c9190611379565b610c73565b6040516102ae919061106a565b60405180910390f35b6102d160048036038101906102cc9190611022565b610e1e565b6040516102de919061115b565b60405180910390f35b6102ef610e36565b6040516102fc91906113e2565b60405180910390f35b61031f600480360381019061031a9190611022565b610e5c565b005b60026020528060005260406000206000915054906101000a900460ff1681565b60008484848460405160200161035a949392919061143f565b604051602081830303815290604052805190602001209050949350505050565b600560009054906101000a900473ffffffffffffffffffffffffffffffffffffffff1673ffffffffffffffffffffffffffffffffffffffff163373ffffffffffffffffffffffffffffffffffffffff161461040a576040517f08c379a000000000000000000000000000000000000000000000000000000000815260040161040190611510565b60405180910390fd5b6000801b810361044f576040517f08c379a00000000000000000000000000000000000000000000000000000000081526004016104469061157c565b60405180910390fd5b6001548103610493576040517f08c379a000000000000000000000000000000000000000000000000000000000815260040161048a906115e8565b60405180910390fd5b600060015490508160018190555081817ffd69edeceaf1d6832d935be1fba54ca93bf17e71520c6c9ffc08d6e9529f875760405160405180910390a35050565b60045481565b60006002600083815260200190815260200160002060009054906101000a900460ff169050919050565b600560009054906101000a900473ffffffffffffffffffffffffffffffffffffffff1673ffffffffffffffffffffffffffffffffffffffff163373ffffffffffffffffffffffffffffffffffffffff1614610593576040517f08c379a000000000000000000000000000000000000000000000000000000000815260040161058a90611510565b60405180910390fd5b600073ffffffffffffffffffffffffffffffffffffffff168173ffffffffffffffffffffffffffffffffffffffff1603610602576040517f08c379a00000000000000000000000000000000000000000000000000000000081526004016105f990611654565b60405180910390fd5b600560009054906101000a900473ffffffffffffffffffffffffffffffffffffffff1673ffffffffffffffffffffffffffffffffffffffff168173ffffffffffffffffffffffffffffffffffffffff1603610692576040517f08c379a0000000000000000000000000000000000000000000000000000000008152600401610689906116c0565b60405180910390fd5b6000600560009054906101000a900473ffffffffffffffffffffffffffffffffffffffff16905081600560006101000a81548173ffffffffffffffffffffffffffffffffffffffff021916908373ffffffffffffffffffffffffffffffffffffffff1602179055508173ffffffffffffffffffffffffffffffffffffffff168173ffffffffffffffffffffffffffffffffffffffff167f7e644d79422f17c01e4894b5f4f588d331ebfa28653d42ae832dc59e38c9798f60405160405180910390a35050565b6000806000600154600454600560009054906101000a900473ffffffffffffffffffffffffffffffffffffffff16925092509250909192565b6000806002600084815260200190815260200160002060009054906101000a900460ff16600360008581526020019081526020016000205491509150915091565b60015481565b600560009054906101000a900473ffffffffffffffffffffffffffffffffffffffff1673ffffffffffffffffffffffffffffffffffffffff163373ffffffffffffffffffffffffffffffffffffffff1614610868576040517f08c379a000000000000000000000000000000000000000000000000000000000815260040161085f90611510565b60405180910390fd5b6000801b81036108ad576040517f08c379a00000000000000000000000000000000000000000000000000000000081526004016108a49061172c565b60405180910390fd5b6002600082815260200190815260200160002060009054906101000a900460ff161561090e576040517f08c379a000000000000000000000000000000000000000000000000000000000815260040161090590611798565b60405180910390fd5b60016002600083815260200190815260200160002060006101000a81548160ff02191690831515021790555043600360008381526020019081526020016000208190555060046000815480929190610965906117e7565b9190505550807fecb880bc52ee28af3c31a4023d2428c8f08040c5510222cb22d062bf7306690e60405160405180910390a250565b600560009054906101000a900473ffffffffffffffffffffffffffffffffffffffff1673ffffffffffffffffffffffffffffffffffffffff163373ffffffffffffffffffffffffffffffffffffffff1614610a2a576040517f08c379a0000000000000000000000000000000000000000000000000000000008152600401610a2190611510565b60405180910390fd5b6000801b8303610a6f576040517f08c379a0000000000000000000000000000000000000000000000000000000008152600401610a669061157c565b60405180910390fd5b60008282905011610ab5576040517f08c379a0000000000000000000000000000000000000000000000000000000008152600401610aac9061187b565b60405180910390fd5b6064828290501115610afc576040517f08c379a0000000000000000000000000000000000000000000000000000000008152600401610af3906118e7565b60405180910390fd5b600060015490508360018190555060005b83839050811015610c3e576000848483818110610b2d57610b2c611907565b5b9050602002013590506000801b8103610b7b576040517f08c379a0000000000000000000000000000000000000000000000000000000008152600401610b729061172c565b60405180910390fd5b6002600082815260200190815260200160002060009054906101000a900460ff16610c2a5760016002600083815260200190815260200160002060006101000a81548160ff02191690831515021790555043600360008381526020019081526020016000208190555060046000815480929190610bf7906117e7565b9190505550807fecb880bc52ee28af3c31a4023d2428c8f08040c5510222cb22d062bf7306690e60405160405180910390a25b508080610c36906117e7565b915050610b0d565b5083817ffd69edeceaf1d6832d935be1fba54ca93bf17e71520c6c9ffc08d6e9529f875760405160405180910390a350505050565b60008060001b60015403610cbc576040517f08c379a0000000000000000000000000000000000000000000000000000000008152600401610cb390611982565b60405180910390fd5b610cc4610fc0565b60015460001c81600060018110610cde57610cdd611907565b5b60200201818152505060008060009054906101000a900473ffffffffffffffffffffffffffffffffffffffff1673ffffffffffffffffffffffffffffffffffffffff166343753b4d888888866040518563ffffffff1660e01b8152600401610d499493929190611b25565b602060405180830381865afa158015610d66573d6000803e3d6000fd5b505050506040513d601f19601f82011682018060405250810190610d8a9190611b98565b905080610dcc576040517f08c379a0000000000000000000000000000000000000000000000000000000008152600401610dc390611c11565b60405180910390fd5b833373ffffffffffffffffffffffffffffffffffffffff167fb995343050bbaac74530262032b1b2520405a1ae1ce825b4b56917c29960ca0160405160405180910390a3600192505050949350505050565b60036020528060005260406000206000915090505481565b600560009054906101000a900473ffffffffffffffffffffffffffffffffffffffff1681565b600560009054906101000a900473ffffffffffffffffffffffffffffffffffffffff1673ffffffffffffffffffffffffffffffffffffffff163373ffffffffffffffffffffffffffffffffffffffff1614610eec576040517f08c379a0000000000000000000000000000000000000000000000000000000008152600401610ee390611510565b60405180910390fd5b6002600082815260200190815260200160002060009054906101000a900460ff16610f4c576040517f08c379a0000000000000000000000000000000000000000000000000000000008152600401610f4390611c7d565b60405180910390fd5b60006002600083815260200190815260200160002060006101000a81548160ff02191690831515021790555060046000815480929190610f8b90611c9d565b9190505550807f6635fb23ae9865dd00ccafdab17b138e48723a8e38446342a69f5bf6d6ad02c360405160405180910390a250565b6040518060200160405280600190602082028036833780820191505090505090565b600080fd5b600080fd5b6000819050919050565b610fff81610fec565b811461100a57600080fd5b50565b60008135905061101c81610ff6565b92915050565b60006020828403121561103857611037610fe2565b5b60006110468482850161100d565b91505092915050565b60008115159050919050565b6110648161104f565b82525050565b600060208201905061107f600083018461105b565b92915050565b6000819050919050565b61109881611085565b81146110a357600080fd5b50565b6000813590506110b58161108f565b92915050565b600080600080608085870312156110d5576110d4610fe2565b5b60006110e3878288016110a6565b94505060206110f48782880161100d565b9350506040611105878288016110a6565b92505060606111168782880161100d565b91505092959194509250565b61112b81610fec565b82525050565b60006020820190506111466000830184611122565b92915050565b61115581611085565b82525050565b6000602082019050611170600083018461114c565b92915050565b600073ffffffffffffffffffffffffffffffffffffffff82169050919050565b60006111a182611176565b9050919050565b6111b181611196565b81146111bc57600080fd5b50565b6000813590506111ce816111a8565b92915050565b6000602082840312156111ea576111e9610fe2565b5b60006111f8848285016111bf565b91505092915050565b61120a81611196565b82525050565b60006060820190506112256000830186611122565b611232602083018561114c565b61123f6040830184611201565b949350505050565b600060408201905061125c600083018561105b565b611269602083018461114c565b9392505050565b600080fd5b600080fd5b600080fd5b60008083601f84011261129557611294611270565b5b8235905067ffffffffffffffff8111156112b2576112b1611275565b5b6020830191508360208202830111156112ce576112cd61127a565b5b9250929050565b6000806000604084860312156112ee576112ed610fe2565b5b60006112fc8682870161100d565b935050602084013567ffffffffffffffff81111561131d5761131c610fe7565b5b6113298682870161127f565b92509250509250925092565b6000819050826020600202820111156113515761135061127a565b5b92915050565b6000819050826040600202820111156113735761137261127a565b5b92915050565b600080600080610120858703121561139457611393610fe2565b5b60006113a287828801611335565b94505060406113b387828801611357565b93505060c06113c487828801611335565b9250506101006113d68782880161100d565b91505092959194509250565b60006020820190506113f76000830184611201565b92915050565b6000819050919050565b61141861141382611085565b6113fd565b82525050565b6000819050919050565b61143961143482610fec565b61141e565b82525050565b600061144b8287611407565b60208201915061145b8286611428565b60208201915061146b8285611407565b60208201915061147b8284611428565b60208201915081905095945050505050565b600082825260208201905092915050565b7f4f6e6c792061646d696e2063616e20706572666f726d2074686973206163746960008201527f6f6e000000000000000000000000000000000000000000000000000000000000602082015250565b60006114fa60228361148d565b91506115058261149e565b604082019050919050565b60006020820190508181036000830152611529816114ed565b9050919050565b7f496e76616c696420726f6f742068617368000000000000000000000000000000600082015250565b600061156660118361148d565b915061157182611530565b602082019050919050565b6000602082019050818103600083015261159581611559565b9050919050565b7f526f6f7420616c72656164792063757272656e74000000000000000000000000600082015250565b60006115d260148361148d565b91506115dd8261159c565b602082019050919050565b60006020820190508181036000830152611601816115c5565b9050919050565b7f496e76616c6964206e65772061646d696e206164647265737300000000000000600082015250565b600061163e60198361148d565b915061164982611608565b602082019050919050565b6000602082019050818103600083015261166d81611631565b9050919050565b7f416c72656164792061646d696e00000000000000000000000000000000000000600082015250565b60006116aa600d8361148d565b91506116b582611674565b602082019050919050565b600060208201905081810360008301526116d98161169d565b9050919050565b7f496e76616c6964206964656e7469747920686173680000000000000000000000600082015250565b600061171660158361148d565b9150611721826116e0565b602082019050919050565b6000602082019050818103600083015261174581611709565b9050919050565b7f416c726561647920617070726f76656400000000000000000000000000000000600082015250565b600061178260108361148d565b915061178d8261174c565b602082019050919050565b600060208201905081810360008301526117b181611775565b9050919050565b7f4e487b7100000000000000000000000000000000000000000000000000000000600052601160045260246000fd5b60006117f282611085565b91507fffffffffffffffffffffffffffffffffffffffffffffffffffffffffffffffff8203611824576118236117b8565b5b600182019050919050565b7f456d707479206964656e74697469657320617272617900000000000000000000600082015250565b600061186560168361148d565b91506118708261182f565b602082019050919050565b6000602082019050818103600083015261189481611858565b9050919050565b7f546f6f206d616e79206964656e74697469657300000000000000000000000000600082015250565b60006118d160138361148d565b91506118dc8261189b565b602082019050919050565b60006020820190508181036000830152611900816118c4565b9050919050565b7f4e487b7100000000000000000000000000000000000000000000000000000000600052603260045260246000fd5b7f4e6f204d65726b6c6520726f6f74207365740000000000000000000000000000600082015250565b600061196c60128361148d565b915061197782611936565b602082019050919050565b6000602082019050818103600083015261199b8161195f565b9050919050565b82818337505050565b6119b7604083836119a2565b5050565b600060029050919050565b600081905092915050565b6000819050919050565b6119e7604083836119a2565b5050565b60006119f783836119db565b60408301905092915050565b600082905092915050565b6000604082019050919050565b611a24816119bb565b611a2e81846119c6565b9250611a39826119d1565b8060005b83811015611a7257611a4f8284611a03565b611a5987826119eb565b9650611a6483611a0e565b925050600181019050611a3d565b505050505050565b600060019050919050565b600081905092915050565b6000819050919050565b611aa381611085565b82525050565b6000611ab58383611a9a565b60208301905092915050565b6000602082019050919050565b611ad781611a7a565b611ae18184611a85565b9250611aec82611a90565b8060005b83811015611b1d578151611b048782611aa9565b9650611b0f83611ac1565b925050600181019050611af0565b505050505050565b600061012082019050611b3b60008301876119ab565b611b486040830186611a1b565b611b5560c08301856119ab565b611b63610100830184611ace565b95945050505050565b611b758161104f565b8114611b8057600080fd5b50565b600081519050611b9281611b6c565b92915050565b600060208284031215611bae57611bad610fe2565b5b6000611bbc84828501611b83565b91505092915050565b7f496e76616c6964205a4b2070726f6f6600000000000000000000000000000000600082015250565b6000611bfb60108361148d565b9150611c0682611bc5565b602082019050919050565b60006020820190508181036000830152611c2a81611bee565b9050919050565b7f4964656e74697479206e6f7420617070726f7665640000000000000000000000600082015250565b6000611c6760158361148d565b9150611c7282611c31565b602082019050919050565b60006020820190508181036000830152611c9681611c5a565b9050919050565b6000611ca882611085565b915060008203611cbb57611cba6117b8565b5b60018203905091905056fea2646970667358221220a9a69787754a9083b2f542da70410f58ab349284c3dd3dffa9bad0c20089572c64736f6c63430008140033",
  "linkReferences": {},
  "deployedLinkReferences": {}
}