{
  "_format": "hh-sol-artifact-1",
  "contractName": "IdentityMerkleZKP",
  "sourceName": "contracts/IdentityMerkleZKP.sol",
  "abi": [
    {
      "inputs": [
        {
          "internalType": "address",
          "name": "_verifier",
          "type": "address"
        },
        {
          "internalType": "bytes32",
          "name": "_initialRoot",
          "type": "bytes32"
        }
      ],
      "stateMutability": "nonpayable",
      "type": "constructor"
    },
    {
      "anonymous": false,
      "inputs": [
        {
          "indexed": true,
          "internalType": "address",
          "name": "oldAdmin",
          "type": "address"
        },
        {
          "indexed": true,
          "internalType": "address",
          "name": "newAdmin",
          "type": "address"
        }
      ],
      "name": "AdminChanged",
      "type": "event"
    },
    {
      "anonymous": false,
      "inputs": [
        {
          "indexed": true,
          "internalType": "address",
          "name": "verifier",
          "type": "address"
        },
        {
          "indexed": true,
          "internalType": "bytes32",
          "name": "merkleRoot",
          "type": "bytes32"
        },
        {
          "indexed": false,
          "internalType": "uint256",
          "name": "timestamp",
          "type": "uint256"
        }
      ],
      "name": "IdentityVerified",
      "type": "event"
    },
    {
      "anonymous": false,
      "inputs": [
        {
          "indexed": true,
          "internalType": "bytes32",
          "name": "oldRoot",
          "type": "bytes32"
        },
        {
          "indexed": true,
          "internalType": "bytes32",
          "name": "newRoot",
          "type": "bytes32"
        },
        {
          "indexed": false,
          "internalType": "uint256",
          "name": "nonce",
          "type": "uint256"
        },
        {
          "indexed": false,
          "internalType": "uint256",
          "name": "timestamp",
          "type": "uint256"
        }
      ],
      "name": "MerkleRootUpdated",
      "type": "event"
    },
    {
      "anonymous": false,
      "inputs": [
        {
          "indexed": true,
          "internalType": "bytes32",
          "name": "root",
          "type": "bytes32"
        },
        {
          "indexed": false,
          "internalType": "uint256",
          "name": "expiredAt",
          "type": "uint256"
        }
      ],
      "name": "RootExpired",
      "type": "event"
    },
    {
      "anonymous": false,
      "inputs": [
        {
          "indexed": true,
          "internalType": "address",
          "name": "subAdmin",
          "type": "address"
        }
      ],
      "name": "SubAdminAdded",
      "type": "event"
    },
    {
      "anonymous": false,
      "inputs": [
        {
          "indexed": true,
          "internalType": "address",
          "name": "subAdmin",
          "type": "address"
        }
      ],
      "name": "SubAdminRemoved",
      "type": "event"
    },
    {
      "inputs": [],
      "name": "MAX_BATCH_SIZE",
      "outputs": [
        {
          "internalType": "uint256",
          "name": "",
          "type": "uint256"
        }
      ],
      "stateMutability": "view",
      "type": "function"
    },
    {
      "inputs": [],
      "name": "ROOT_EXPIRY_TIME",
      "outputs": [
        {
          "internalType": "uint256",
          "name": "",
          "type": "uint256"
        }
      ],
      "stateMutability": "view",
      "type": "function"
    },
    {
      "inputs": [
        {
          "internalType": "address",
          "name": "subAdmin",
          "type": "address"
        }
      ],
      "name": "addSubAdmin",
      "outputs": [],
      "stateMutability": "nonpayable",
      "type": "function"
    },
    {
      "inputs": [],
      "name": "admin",
      "outputs": [
        {
          "internalType": "address",
          "name": "",
          "type": "address"
        }
      ],
      "stateMutability": "view",
      "type": "function"
    },
    {
      "inputs": [
        {
          "internalType": "bytes32[]",
          "name": "roots",
          "type": "bytes32[]"
        }
      ],
      "name": "batchUpdateRoots",
      "outputs": [],
      "stateMutability": "nonpayable",
      "type": "function"
    },
    {
      "inputs": [
        {
          "internalType": "bytes32[]",
          "name": "roots",
          "type": "bytes32[]"
        }
      ],
      "name": "cleanupExpiredRoots",
      "outputs": [],
      "stateMutability": "nonpayable",
      "type": "function"
    },
    {
      "inputs": [],
      "name": "currentMerkleRoot",
      "outputs": [
        {
          "internalType": "bytes32",
          "name": "",
          "type": "bytes32"
        }
      ],
      "stateMutability": "view",
      "type": "function"
    },
    {
      "inputs": [],
      "name": "getContractInfo",
      "outputs": [
        {
          "internalType": "bytes32",
          "name": "currentRoot",
          "type": "bytes32"
        },
        {
          "internalType": "uint256",
          "name": "totalRootUpdates",
          "type": "uint256"
        },
        {
          "internalType": "address",
          "name": "contractAdmin",
          "type": "address"
        }
      ],
      "stateMutability": "view",
      "type": "function"
    },
    {
      "inputs": [
        {
          "internalType": "bytes32",
          "name": "root",
          "type": "bytes32"
        }
      ],
      "name": "getRootInfo",
      "outputs": [
        {
          "internalType": "bool",
          "name": "isValid",
          "type": "bool"
        },
        {
          "internalType": "uint256",
          "name": "timestamp",
          "type": "uint256"
        },
        {
          "internalType": "bool",
          "name": "isExpired",
          "type": "bool"
        }
      ],
      "stateMutability": "view",
      "type": "function"
    },
    {
      "inputs": [
        {
          "internalType": "bytes32",
          "name": "oldRoot",
          "type": "bytes32"
        }
      ],
      "name": "invalidateRoot",
      "outputs": [],
      "stateMutability": "nonpayable",
      "type": "function"
    },
    {
      "inputs": [
        {
          "internalType": "address",
          "name": "account",
          "type": "address"
        }
      ],
      "name": "isSubAdmin",
      "outputs": [
        {
          "internalType": "bool",
          "name": "",
          "type": "bool"
        }
      ],
      "stateMutability": "view",
      "type": "function"
    },
    {
      "inputs": [
        {
          "internalType": "bytes32",
          "name": "root",
          "type": "bytes32"
        }
      ],
      "name": "isValidRoot",
      "outputs": [
        {
          "internalType": "bool",
          "name": "",
          "type": "bool"
        }
      ],
      "stateMutability": "view",
      "type": "function"
    },
    {
      "inputs": [
        {
          "internalType": "address",
          "name": "subAdmin",
          "type": "address"
        }
      ],
      "name": "removeSubAdmin",
      "outputs": [],
      "stateMutability": "nonpayable",
      "type": "function"
    },
    {
      "inputs": [],
      "name": "rootNonce",
      "outputs": [
        {
          "internalType": "uint256",
          "name": "",
          "type": "uint256"
        }
      ],
      "stateMutability": "view",
      "type": "function"
    },
    {
      "inputs": [
        {
          "internalType": "bytes32",
          "name": "",
          "type": "bytes32"
        }
      ],
      "name": "rootTimestamp",
      "outputs": [
        {
          "internalType": "uint256",
          "name": "",
          "type": "uint256"
        }
      ],
      "stateMutability": "view",
      "type": "function"
    },
    {
      "inputs": [
        {
          "internalType": "address",
          "name": "",
          "type": "address"
        }
      ],
      "name": "subAdmins",
      "outputs": [
        {
          "internalType": "bool",
          "name": "",
          "type": "bool"
        }
      ],
      "stateMutability": "view",
      "type": "function"
    },
    {
      "inputs": [
        {
          "internalType": "address",
          "name": "newAdmin",
          "type": "address"
        }
      ],
      "name": "transferAdmin",
      "outputs": [],
      "stateMutability": "nonpayable",
      "type": "function"
    },
    {
      "inputs": [
        {
          "internalType": "bytes32",
          "name": "newRoot",
          "type": "bytes32"
        }
      ],
      "name": "updateMerkleRoot",
      "outputs": [],
      "stateMutability": "nonpayable",
      "type": "function"
    },
    {
      "inputs": [
        {
          "internalType": "bytes32",
          "name": "",
          "type": "bytes32"
        }
      ],
      "name": "validRoots",
      "outputs": [
        {
          "internalType": "bool",
          "name": "",
          "type": "bool"
        }
      ],
      "stateMutability": "view",
      "type": "function"
    },
    {
      "inputs": [
        {
          "internalType": "uint256[2]",
          "name": "a",
          "type": "uint256[2]"
        },
        {
          "internalType": "uint256[2][2]",
          "name": "b",
          "type": "uint256[2][2]"
        },
        {
          "internalType": "uint256[2]",
          "name": "c",
          "type": "uint256[2]"
        },
        {
          "internalType": "bytes32",
          "name": "merkleRoot",
          "type": "bytes32"
        }
      ],
      "name": "verifyIdentity",
      "outputs": [
        {
          "internalType": "bool",
          "name": "",
          "type": "bool"
        }
      ],
      "stateMutability": "nonpayable",
      "type": "function"
    }
  ],
  "bytecode": "0x60806040523480156200001157600080fd5b506040516200299b3803806200299b83398181016040528101906200003791906200026f565b600073ffffffffffffffffffffffffffffffffffffffff168273ffffffffffffffffffffffffffffffffffffffff1603620000a9576040517f08c379a0000000000000000000000000000000000000000000000000000000008152600401620000a09062000317565b60405180910390fd5b816000806101000a81548173ffffffffffffffffffffffffffffffffffffffff021916908373ffffffffffffffffffffffffffffffffffffffff16021790555033600560006101000a81548173ffffffffffffffffffffffffffffffffffffffff021916908373ffffffffffffffffffffffffffffffffffffffff1602179055506000801b8114620001c2578060018190555060016002600083815260200190815260200160002060006101000a81548160ff021916908315150217905550426003600083815260200190815260200160002081905550806000801b7f7b4cf5f7d2f07c1e726f2078f7ffb89f6298e992ba2920ad3e95a372e7cc8a25600042604051620001b9929190620003a1565b60405180910390a35b5050620003ce565b600080fd5b600073ffffffffffffffffffffffffffffffffffffffff82169050919050565b6000620001fc82620001cf565b9050919050565b6200020e81620001ef565b81146200021a57600080fd5b50565b6000815190506200022e8162000203565b92915050565b6000819050919050565b620002498162000234565b81146200025557600080fd5b50565b60008151905062000269816200023e565b92915050565b60008060408385031215620002895762000288620001ca565b5b600062000299858286016200021d565b9250506020620002ac8582860162000258565b9150509250929050565b600082825260208201905092915050565b7f496e76616c696420766572696669657220616464726573730000000000000000600082015250565b6000620002ff601883620002b6565b91506200030c82620002c7565b602082019050919050565b600060208201905081810360008301526200033281620002f0565b9050919050565b6000819050919050565b6000819050919050565b6000819050919050565b600062000378620003726200036c8462000339565b6200034d565b62000343565b9050919050565b6200038a8162000357565b82525050565b6200039b8162000343565b82525050565b6000604082019050620003b860008301856200037f565b620003c7602083018462000390565b9392505050565b6125bd80620003de6000396000f3fe608060405234801561001057600080fd5b506004361061012c5760003560e01c80639ea97190116100ad578063db67284511610071578063db67284514610359578063f4651d5714610375578063f63f7d8b14610391578063f851a440146103c1578063ffec3c49146103df5761012c565b80639ea97190146102a1578063b9c4eb43146102bf578063cc718463146102db578063cfdbf2541461030b578063d1c63b21146103295761012c565b80634783f0ef116100f45780634783f0ef146101fb5780634981719b146102175780636132fa631461023557806375829def146102655780637cc1f867146102815761012c565b806301cbcba1146101315780630ce611e61461014d57806329e48e211461017d5780633eefdcce146101ad57806341cc5bcb146101c9575b600080fd5b61014b60048036038101906101469190611724565b6103fd565b005b610167600480360381019061016291906117a7565b6106a2565b60405161017491906117ef565b60405180910390f35b610197600480360381019061019291906117a7565b6106f9565b6040516101a491906117ef565b60405180910390f35b6101c760048036038101906101c291906117a7565b610719565b005b6101e360048036038101906101de91906117a7565b6108b4565b6040516101f293929190611823565b60405180910390f35b610215600480360381019061021091906117a7565b61091f565b005b61021f610b37565b60405161022c919061185a565b60405180910390f35b61024f600480360381019061024a91906118d3565b610b3e565b60405161025c91906117ef565b60405180910390f35b61027f600480360381019061027a91906118d3565b610b5e565b005b610289610db3565b6040516102989392919061191e565b60405180910390f35b6102a9610dec565b6040516102b69190611955565b60405180910390f35b6102d960048036038101906102d491906118d3565b610df2565b005b6102f560048036038101906102f091906119b4565b6110ac565b60405161030291906117ef565b60405180910390f35b610313611324565b604051610320919061185a565b60405180910390f35b610343600480360381019061033e91906118d3565b611329565b60405161035091906117ef565b60405180910390f35b610373600480360381019061036e9190611724565b61137f565b005b61038f600480360381019061038a91906118d3565b611495565b005b6103ab60048036038101906103a691906117a7565b61164f565b6040516103b8919061185a565b60405180910390f35b6103c9611667565b6040516103d69190611a1d565b60405180910390f35b6103e761168d565b6040516103f4919061185a565b60405180910390f35b600560009054906101000a900473ffffffffffffffffffffffffffffffffffffffff1673ffffffffffffffffffffffffffffffffffffffff163373ffffffffffffffffffffffffffffffffffffffff161461048d576040517f08c379a000000000000000000000000000000000000000000000000000000000815260040161048490611abb565b60405180910390fd5b600082829050116104d3576040517f08c379a00000000000000000000000000000000000000000000000000000000081526004016104ca90611b27565b60405180910390fd5b606482829050111561051a576040517f08c379a000000000000000000000000000000000000000000000000000000000815260040161051190611b93565b60405180910390fd5b60005b8282905081101561060f576000801b83838381811061053f5761053e611bb3565b5b9050602002013503610586576040517f08c379a000000000000000000000000000000000000000000000000000000000815260040161057d90611c2e565b60405180910390fd5b60016002600085858581811061059f5761059e611bb3565b5b90506020020135815260200190815260200160002060006101000a81548160ff02191690831515021790555042600360008585858181106105e3576105e2611bb3565b5b90506020020135815260200190815260200160002081905550808061060790611c7d565b91505061051d565b506000600154905082826001858590506106299190611cc5565b81811061063957610638611bb3565b5b905060200201356001819055506004600081548092919061065990611c7d565b9190505550600154817f7b4cf5f7d2f07c1e726f2078f7ffb89f6298e992ba2920ad3e95a372e7cc8a2560045442604051610695929190611cf9565b60405180910390a3505050565b60006002600083815260200190815260200160002060009054906101000a900460ff1680156106f2575062278d0060036000848152602001908152602001600020546106ee9190611d22565b4211155b9050919050565b60026020528060005260406000206000915054906101000a900460ff1681565b600560009054906101000a900473ffffffffffffffffffffffffffffffffffffffff1673ffffffffffffffffffffffffffffffffffffffff163373ffffffffffffffffffffffffffffffffffffffff16146107a9576040517f08c379a00000000000000000000000000000000000000000000000000000000081526004016107a090611abb565b60405180910390fd5b6002600082815260200190815260200160002060009054906101000a900460ff16610809576040517f08c379a000000000000000000000000000000000000000000000000000000000815260040161080090611da2565b60405180910390fd5b600154810361084d576040517f08c379a000000000000000000000000000000000000000000000000000000000815260040161084490611e0e565b60405180910390fd5b60006002600083815260200190815260200160002060006101000a81548160ff021916908315150217905550807f5667b3342c49ba59a83549a4f6a82bd34d35cee4a0f3b07926295854242f8aaa426040516108a9919061185a565b60405180910390a250565b60008060006002600085815260200190815260200160002060009054906101000a900460ff16600360008681526020019081526020016000205462278d0060036000888152602001908152602001600020546109109190611d22565b42119250925092509193909250565b600560009054906101000a900473ffffffffffffffffffffffffffffffffffffffff1673ffffffffffffffffffffffffffffffffffffffff163373ffffffffffffffffffffffffffffffffffffffff1614806109c45750600660003373ffffffffffffffffffffffffffffffffffffffff1673ffffffffffffffffffffffffffffffffffffffff16815260200190815260200160002060009054906101000a900460ff165b610a03576040517f08c379a00000000000000000000000000000000000000000000000000000000081526004016109fa90611ea0565b60405180910390fd5b6000801b8103610a48576040517f08c379a0000000000000000000000000000000000000000000000000000000008152600401610a3f90611f0c565b60405180910390fd5b6001548103610a8c576040517f08c379a0000000000000000000000000000000000000000000000000000000008152600401610a8390611f78565b60405180910390fd5b600060015490508160018190555060016002600084815260200190815260200160002060006101000a81548160ff02191690831515021790555042600360008481526020019081526020016000208190555060046000815480929190610af190611c7d565b919050555081817f7b4cf5f7d2f07c1e726f2078f7ffb89f6298e992ba2920ad3e95a372e7cc8a2560045442604051610b2b929190611cf9565b60405180910390a35050565b62278d0081565b60066020528060005260406000206000915054906101000a900460ff1681565b600560009054906101000a900473ffffffffffffffffffffffffffffffffffffffff1673ffffffffffffffffffffffffffffffffffffffff163373ffffffffffffffffffffffffffffffffffffffff1614610bee576040517f08c379a0000000000000000000000000000000000000000000000000000000008152600401610be590611abb565b60405180910390fd5b600073ffffffffffffffffffffffffffffffffffffffff168173ffffffffffffffffffffffffffffffffffffffff1603610c5d576040517f08c379a0000000000000000000000000000000000000000000000000000000008152600401610c5490611fe4565b60405180910390fd5b600560009054906101000a900473ffffffffffffffffffffffffffffffffffffffff1673ffffffffffffffffffffffffffffffffffffffff168173ffffffffffffffffffffffffffffffffffffffff1603610ced576040517f08c379a0000000000000000000000000000000000000000000000000000000008152600401610ce490612050565b60405180910390fd5b6000600560009054906101000a900473ffffffffffffffffffffffffffffffffffffffff16905081600560006101000a81548173ffffffffffffffffffffffffffffffffffffffff021916908373ffffffffffffffffffffffffffffffffffffffff1602179055508173ffffffffffffffffffffffffffffffffffffffff168173ffffffffffffffffffffffffffffffffffffffff167f7e644d79422f17c01e4894b5f4f588d331ebfa28653d42ae832dc59e38c9798f60405160405180910390a35050565b6000806000600154600454600560009054906101000a900473ffffffffffffffffffffffffffffffffffffffff16925092509250909192565b60015481565b600560009054906101000a900473ffffffffffffffffffffffffffffffffffffffff1673ffffffffffffffffffffffffffffffffffffffff163373ffffffffffffffffffffffffffffffffffffffff1614610e82576040517f08c379a0000000000000000000000000000000000000000000000000000000008152600401610e7990611abb565b60405180910390fd5b600073ffffffffffffffffffffffffffffffffffffffff168173ffffffffffffffffffffffffffffffffffffffff1603610ef1576040517f08c379a0000000000000000000000000000000000000000000000000000000008152600401610ee8906120bc565b60405180910390fd5b600560009054906101000a900473ffffffffffffffffffffffffffffffffffffffff1673ffffffffffffffffffffffffffffffffffffffff168173ffffffffffffffffffffffffffffffffffffffff1603610f81576040517f08c379a0000000000000000000000000000000000000000000000000000000008152600401610f7890612128565b60405180910390fd5b600660008273ffffffffffffffffffffffffffffffffffffffff1673ffffffffffffffffffffffffffffffffffffffff16815260200190815260200160002060009054906101000a900460ff161561100e576040517f08c379a000000000000000000000000000000000000000000000000000000000815260040161100590612194565b60405180910390fd5b6001600660008373ffffffffffffffffffffffffffffffffffffffff1673ffffffffffffffffffffffffffffffffffffffff16815260200190815260200160002060006101000a81548160ff0219169083151502179055508073ffffffffffffffffffffffffffffffffffffffff167fcf2ed8c346fb21ab60821000e1a137120e7db3a3b27920f5359d89f7e79f6dc160405160405180910390a250565b6000816000801b81036110f4576040517f08c379a00000000000000000000000000000000000000000000000000000000081526004016110eb90611f0c565b60405180910390fd5b6002600082815260200190815260200160002060009054906101000a900460ff16611154576040517f08c379a000000000000000000000000000000000000000000000000000000000815260040161114b90612200565b60405180910390fd5b62278d0060036000838152602001908152602001600020546111769190611d22565b4211156111b8576040517f08c379a00000000000000000000000000000000000000000000000000000000081526004016111af9061226c565b60405180910390fd5b6111c0611693565b8360001c816000600181106111d8576111d7611bb3565b5b60200201818152505060008060009054906101000a900473ffffffffffffffffffffffffffffffffffffffff1673ffffffffffffffffffffffffffffffffffffffff166343753b4d898989866040518563ffffffff1660e01b8152600401611243949392919061240f565b602060405180830381865afa158015611260573d6000803e3d6000fd5b505050506040513d601f19601f820116820180604052508101906112849190612482565b9050806112c6576040517f08c379a00000000000000000000000000000000000000000000000000000000081526004016112bd906124fb565b60405180910390fd5b843373ffffffffffffffffffffffffffffffffffffffff167fb558cab5ce0a27e4646683f8c53357e94c1f98747b816fcdeb7befab18fc0c9c4260405161130d919061185a565b60405180910390a360019350505050949350505050565b606481565b6000600660008373ffffffffffffffffffffffffffffffffffffffff1673ffffffffffffffffffffffffffffffffffffffff16815260200190815260200160002060009054906101000a900460ff169050919050565b60005b82829050811080156113945750606481105b156114905760008383838181106113ae576113ad611bb3565b5b9050602002013590506002600082815260200190815260200160002060009054906101000a900460ff168015611404575062278d0060036000838152602001908152602001600020546114019190611d22565b42115b801561141257506001548114155b1561147c5760006002600083815260200190815260200160002060006101000a81548160ff021916908315150217905550807f5667b3342c49ba59a83549a4f6a82bd34d35cee4a0f3b07926295854242f8aaa42604051611473919061185a565b60405180910390a25b50808061148890611c7d565b915050611382565b505050565b600560009054906101000a900473ffffffffffffffffffffffffffffffffffffffff1673ffffffffffffffffffffffffffffffffffffffff163373ffffffffffffffffffffffffffffffffffffffff1614611525576040517f08c379a000000000000000000000000000000000000000000000000000000000815260040161151c90611abb565b60405180910390fd5b600660008273ffffffffffffffffffffffffffffffffffffffff1673ffffffffffffffffffffffffffffffffffffffff16815260200190815260200160002060009054906101000a900460ff166115b1576040517f08c379a00000000000000000000000000000000000000000000000000000000081526004016115a890612567565b60405180910390fd5b6000600660008373ffffffffffffffffffffffffffffffffffffffff1673ffffffffffffffffffffffffffffffffffffffff16815260200190815260200160002060006101000a81548160ff0219169083151502179055508073ffffffffffffffffffffffffffffffffffffffff167ff52db6a895edbda5985a43301341c9e31e0ac6a6fecbd982956afcf3fdc0fe6d60405160405180910390a250565b60036020528060005260406000206000915090505481565b600560009054906101000a900473ffffffffffffffffffffffffffffffffffffffff1681565b60045481565b6040518060200160405280600190602082028036833780820191505090505090565b600080fd5b600080fd5b600080fd5b600080fd5b600080fd5b60008083601f8401126116e4576116e36116bf565b5b8235905067ffffffffffffffff811115611701576117006116c4565b5b60208301915083602082028301111561171d5761171c6116c9565b5b9250929050565b6000806020838503121561173b5761173a6116b5565b5b600083013567ffffffffffffffff811115611759576117586116ba565b5b611765858286016116ce565b92509250509250929050565b6000819050919050565b61178481611771565b811461178f57600080fd5b50565b6000813590506117a18161177b565b92915050565b6000602082840312156117bd576117bc6116b5565b5b60006117cb84828501611792565b91505092915050565b60008115159050919050565b6117e9816117d4565b82525050565b600060208201905061180460008301846117e0565b92915050565b6000819050919050565b61181d8161180a565b82525050565b600060608201905061183860008301866117e0565b6118456020830185611814565b61185260408301846117e0565b949350505050565b600060208201905061186f6000830184611814565b92915050565b600073ffffffffffffffffffffffffffffffffffffffff82169050919050565b60006118a082611875565b9050919050565b6118b081611895565b81146118bb57600080fd5b50565b6000813590506118cd816118a7565b92915050565b6000602082840312156118e9576118e86116b5565b5b60006118f7848285016118be565b91505092915050565b61190981611771565b82525050565b61191881611895565b82525050565b60006060820190506119336000830186611900565b6119406020830185611814565b61194d604083018461190f565b949350505050565b600060208201905061196a6000830184611900565b92915050565b60008190508260206002028201111561198c5761198b6116c9565b5b92915050565b6000819050826040600202820111156119ae576119ad6116c9565b5b92915050565b60008060008061012085870312156119cf576119ce6116b5565b5b60006119dd87828801611970565b94505060406119ee87828801611992565b93505060c06119ff87828801611970565b925050610100611a1187828801611792565b91505092959194509250565b6000602082019050611a32600083018461190f565b92915050565b600082825260208201905092915050565b7f4f6e6c792061646d696e2063616e20706572666f726d2074686973206163746960008201527f6f6e000000000000000000000000000000000000000000000000000000000000602082015250565b6000611aa5602283611a38565b9150611ab082611a49565b604082019050919050565b60006020820190508181036000830152611ad481611a98565b9050919050565b7f456d70747920726f6f7473206172726179000000000000000000000000000000600082015250565b6000611b11601183611a38565b9150611b1c82611adb565b602082019050919050565b60006020820190508181036000830152611b4081611b04565b9050919050565b7f42617463682073697a652065786365656473206c696d69740000000000000000600082015250565b6000611b7d601883611a38565b9150611b8882611b47565b602082019050919050565b60006020820190508181036000830152611bac81611b70565b9050919050565b7f4e487b7100000000000000000000000000000000000000000000000000000000600052603260045260246000fd5b7f496e76616c696420726f6f7420696e2062617463680000000000000000000000600082015250565b6000611c18601583611a38565b9150611c2382611be2565b602082019050919050565b60006020820190508181036000830152611c4781611c0b565b9050919050565b7f4e487b7100000000000000000000000000000000000000000000000000000000600052601160045260246000fd5b6000611c888261180a565b91507fffffffffffffffffffffffffffffffffffffffffffffffffffffffffffffffff8203611cba57611cb9611c4e565b5b600182019050919050565b6000611cd08261180a565b9150611cdb8361180a565b9250828203905081811115611cf357611cf2611c4e565b5b92915050565b6000604082019050611d0e6000830185611814565b611d1b6020830184611814565b9392505050565b6000611d2d8261180a565b9150611d388361180a565b9250828201905080821115611d5057611d4f611c4e565b5b92915050565b7f526f6f74206e6f742076616c6964000000000000000000000000000000000000600082015250565b6000611d8c600e83611a38565b9150611d9782611d56565b602082019050919050565b60006020820190508181036000830152611dbb81611d7f565b9050919050565b7f43616e6e6f7420696e76616c69646174652063757272656e7420726f6f740000600082015250565b6000611df8601e83611a38565b9150611e0382611dc2565b602082019050919050565b60006020820190508181036000830152611e2781611deb565b9050919050565b7f4f6e6c792061646d696e206f72207375622d61646d696e2063616e207065726660008201527f6f726d207468697320616374696f6e0000000000000000000000000000000000602082015250565b6000611e8a602f83611a38565b9150611e9582611e2e565b604082019050919050565b60006020820190508181036000830152611eb981611e7d565b9050919050565b7f496e76616c696420726f6f742068617368000000000000000000000000000000600082015250565b6000611ef6601183611a38565b9150611f0182611ec0565b602082019050919050565b60006020820190508181036000830152611f2581611ee9565b9050919050565b7f526f6f7420616c72656164792063757272656e74000000000000000000000000600082015250565b6000611f62601483611a38565b9150611f6d82611f2c565b602082019050919050565b60006020820190508181036000830152611f9181611f55565b9050919050565b7f496e76616c6964206e65772061646d696e206164647265737300000000000000600082015250565b6000611fce601983611a38565b9150611fd982611f98565b602082019050919050565b60006020820190508181036000830152611ffd81611fc1565b9050919050565b7f416c72656164792061646d696e00000000000000000000000000000000000000600082015250565b600061203a600d83611a38565b915061204582612004565b602082019050919050565b600060208201905081810360008301526120698161202d565b9050919050565b7f496e76616c6964207375622d61646d696e206164647265737300000000000000600082015250565b60006120a6601983611a38565b91506120b182612070565b602082019050919050565b600060208201905081810360008301526120d581612099565b9050919050565b7f41646d696e2063616e6e6f74206265207375622d61646d696e00000000000000600082015250565b6000612112601983611a38565b915061211d826120dc565b602082019050919050565b6000602082019050818103600083015261214181612105565b9050919050565b7f416c72656164792061207375622d61646d696e00000000000000000000000000600082015250565b600061217e601383611a38565b915061218982612148565b602082019050919050565b600060208201905081810360008301526121ad81612171565b9050919050565b7f526f6f74206e6f742076616c6964206f72206578706972656400000000000000600082015250565b60006121ea601983611a38565b91506121f5826121b4565b602082019050919050565b60006020820190508181036000830152612219816121dd565b9050919050565b7f526f6f7420686173206578706972656400000000000000000000000000000000600082015250565b6000612256601083611a38565b915061226182612220565b602082019050919050565b6000602082019050818103600083015261228581612249565b9050919050565b82818337505050565b6122a16040838361228c565b5050565b600060029050919050565b600081905092915050565b6000819050919050565b6122d16040838361228c565b5050565b60006122e183836122c5565b60408301905092915050565b600082905092915050565b6000604082019050919050565b61230e816122a5565b61231881846122b0565b9250612323826122bb565b8060005b8381101561235c5761233982846122ed565b61234387826122d5565b965061234e836122f8565b925050600181019050612327565b505050505050565b600060019050919050565b600081905092915050565b6000819050919050565b61238d8161180a565b82525050565b600061239f8383612384565b60208301905092915050565b6000602082019050919050565b6123c181612364565b6123cb818461236f565b92506123d68261237a565b8060005b838110156124075781516123ee8782612393565b96506123f9836123ab565b9250506001810190506123da565b505050505050565b6000610120820190506124256000830187612295565b6124326040830186612305565b61243f60c0830185612295565b61244d6101008301846123b8565b95945050505050565b61245f816117d4565b811461246a57600080fd5b50565b60008151905061247c81612456565b92915050565b600060208284031215612498576124976116b5565b5b60006124a68482850161246d565b91505092915050565b7f496e76616c6964205a4b2070726f6f6600000000000000000000000000000000600082015250565b60006124e5601083611a38565b91506124f0826124af565b602082019050919050565b60006020820190508181036000830152612514816124d8565b9050919050565b7f4e6f742061207375622d61646d696e0000000000000000000000000000000000600082015250565b6000612551600f83611a38565b915061255c8261251b565b602082019050919050565b6000602082019050818103600083015261258081612544565b905091905056fea26469706673582212206bcebaba3bd3f1357bdff1e2b6402d4847c843e6a9dffb34d9cc3f99052bc0f964736f6c63430008140033",
  "linkReferences": {},
  "deployedLinkReferences": {}
}