{
  "_format": "hh-sol-artifact-1",
  "contractName": "IdentityZKP",
  "sourceName": "contracts/IdentityZKP.sol",
  "abi": [
    {
      "inputs": [
        {
          "internalType": "address",
          "name": "_verifier",
          "type": "address"
        }
      ],
      "stateMutability": "nonpayable",
      "type": "constructor"
    },
    {
      "anonymous": false,
      "inputs": [
        {
          "indexed": true,
          "internalType": "address",
          "name": "oldAdmin",
          "type": "address"
        },
        {
          "indexed": true,
          "internalType": "address",
          "name": "newAdmin",
          "type": "address"
        }
      ],
      "name": "AdminChanged",
      "type": "event"
    },
    {
      "anonymous": false,
      "inputs": [
        {
          "indexed": true,
          "internalType": "bytes32",
          "name": "userId",
          "type": "bytes32"
        },
        {
          "indexed": false,
          "internalType": "uint256",
          "name": "hash",
          "type": "uint256"
        }
      ],
      "name": "HashSubmitted",
      "type": "event"
    },
    {
      "anonymous": false,
      "inputs": [
        {
          "indexed": true,
          "internalType": "bytes32",
          "name": "userId",
          "type": "bytes32"
        },
        {
          "indexed": false,
          "internalType": "uint256",
          "name": "hash",
          "type": "uint256"
        }
      ],
      "name": "IdentityApproved",
      "type": "event"
    },
    {
      "anonymous": false,
      "inputs": [
        {
          "indexed": true,
          "internalType": "bytes32",
          "name": "userId",
          "type": "bytes32"
        },
        {
          "indexed": false,
          "internalType": "uint8",
          "name": "reason",
          "type": "uint8"
        }
      ],
      "name": "IdentityRevoked",
      "type": "event"
    },
    {
      "anonymous": false,
      "inputs": [
        {
          "indexed": true,
          "internalType": "bytes32",
          "name": "userId",
          "type": "bytes32"
        }
      ],
      "name": "ProofVerified",
      "type": "event"
    },
    {
      "inputs": [],
      "name": "admin",
      "outputs": [
        {
          "internalType": "address",
          "name": "",
          "type": "address"
        }
      ],
      "stateMutability": "view",
      "type": "function"
    },
    {
      "inputs": [
        {
          "internalType": "bytes32",
          "name": "userId",
          "type": "bytes32"
        }
      ],
      "name": "approveIdentity",
      "outputs": [],
      "stateMutability": "nonpayable",
      "type": "function"
    },
    {
      "inputs": [
        {
          "internalType": "bytes32",
          "name": "",
          "type": "bytes32"
        }
      ],
      "name": "hasSubmitted",
      "outputs": [
        {
          "internalType": "bool",
          "name": "",
          "type": "bool"
        }
      ],
      "stateMutability": "view",
      "type": "function"
    },
    {
      "inputs": [
        {
          "internalType": "bytes32",
          "name": "",
          "type": "bytes32"
        }
      ],
      "name": "isApproved",
      "outputs": [
        {
          "internalType": "bool",
          "name": "",
          "type": "bool"
        }
      ],
      "stateMutability": "view",
      "type": "function"
    },
    {
      "inputs": [
        {
          "internalType": "bytes32",
          "name": "",
          "type": "bytes32"
        }
      ],
      "name": "isVerified",
      "outputs": [
        {
          "internalType": "bool",
          "name": "",
          "type": "bool"
        }
      ],
      "stateMutability": "view",
      "type": "function"
    },
    {
      "inputs": [
        {
          "internalType": "bytes32",
          "name": "userId",
          "type": "bytes32"
        },
        {
          "internalType": "uint8",
          "name": "reason",
          "type": "uint8"
        }
      ],
      "name": "revokeApprovedIdentity",
      "outputs": [],
      "stateMutability": "nonpayable",
      "type": "function"
    },
    {
      "inputs": [
        {
          "internalType": "address",
          "name": "newAdmin",
          "type": "address"
        }
      ],
      "name": "setAdmin",
      "outputs": [],
      "stateMutability": "nonpayable",
      "type": "function"
    },
    {
      "inputs": [
        {
          "internalType": "bytes32",
          "name": "userId",
          "type": "bytes32"
        },
        {
          "internalType": "uint256",
          "name": "hash",
          "type": "uint256"
        }
      ],
      "name": "submitHashByUser",
      "outputs": [],
      "stateMutability": "nonpayable",
      "type": "function"
    },
    {
      "inputs": [
        {
          "internalType": "bytes32",
          "name": "userId",
          "type": "bytes32"
        },
        {
          "internalType": "uint256[2]",
          "name": "a",
          "type": "uint256[2]"
        },
        {
          "internalType": "uint256[2][2]",
          "name": "b",
          "type": "uint256[2][2]"
        },
        {
          "internalType": "uint256[2]",
          "name": "c",
          "type": "uint256[2]"
        }
      ],
      "name": "submitProof",
      "outputs": [],
      "stateMutability": "nonpayable",
      "type": "function"
    },
    {
      "inputs": [
        {
          "internalType": "bytes32",
          "name": "",
          "type": "bytes32"
        }
      ],
      "name": "submittedHash",
      "outputs": [
        {
          "internalType": "uint256",
          "name": "",
          "type": "uint256"
        }
      ],
      "stateMutability": "view",
      "type": "function"
    }
  ],
  "bytecode": "0x60806040523480156200001157600080fd5b50604051620013d2380380620013d2833981810160405281019062000037919062000129565b806000806101000a81548173ffffffffffffffffffffffffffffffffffffffff021916908373ffffffffffffffffffffffffffffffffffffffff16021790555033600160006101000a81548173ffffffffffffffffffffffffffffffffffffffff021916908373ffffffffffffffffffffffffffffffffffffffff160217905550506200015b565b600080fd5b600073ffffffffffffffffffffffffffffffffffffffff82169050919050565b6000620000f182620000c4565b9050919050565b6200010381620000e4565b81146200010f57600080fd5b50565b6000815190506200012381620000f8565b92915050565b600060208284031215620001425762000141620000bf565b5b6000620001528482850162000112565b91505092915050565b611267806200016b6000396000f3fe608060405234801561001057600080fd5b506004361061009e5760003560e01c8063847dc9a111610066578063847dc9a11461016b578063c181b27314610187578063cb0a2fa4146101b7578063e0a5e6ea146101d3578063f851a440146101ef5761009e565b80632f47b80e146100a357806348aefc32146100d35780636032a04b14610103578063701a3ee01461011f578063704b6c021461014f575b600080fd5b6100bd60048036038101906100b89190610a14565b61020d565b6040516100ca9190610a5c565b60405180910390f35b6100ed60048036038101906100e89190610a14565b61022d565b6040516100fa9190610a5c565b60405180910390f35b61011d60048036038101906101189190610ab0565b61024d565b005b61013960048036038101906101349190610a14565b6103d1565b6040516101469190610b09565b60405180910390f35b61016960048036038101906101649190610b82565b6103e9565b005b61018560048036038101906101809190610bf8565b6105a8565b005b6101a1600480360381019061019c9190610a14565b610787565b6040516101ae9190610a5c565b60405180910390f35b6101d160048036038101906101cc9190610a14565b6107a7565b005b6101ed60048036038101906101e89190610c8c565b610911565b005b6101f7610991565b6040516102049190610cdb565b60405180910390f35b60036020528060005260406000206000915054906101000a900460ff1681565b60046020528060005260406000206000915054906101000a900460ff1681565b600160009054906101000a900473ffffffffffffffffffffffffffffffffffffffff1673ffffffffffffffffffffffffffffffffffffffff163373ffffffffffffffffffffffffffffffffffffffff16146102dd576040517f08c379a00000000000000000000000000000000000000000000000000000000081526004016102d490610d79565b60405180910390fd5b6004600083815260200190815260200160002060009054906101000a900460ff1661033d576040517f08c379a000000000000000000000000000000000000000000000000000000000815260040161033490610de5565b60405180910390fd5b60006004600084815260200190815260200160002060006101000a81548160ff02191690831515021790555060006005600084815260200190815260200160002060006101000a81548160ff021916908315150217905550817ff6eba4a3c245358ca78d65a2d4d965acbd72878d7d805187842675f40e030906826040516103c59190610e14565b60405180910390a25050565b60026020528060005260406000206000915090505481565b600160009054906101000a900473ffffffffffffffffffffffffffffffffffffffff1673ffffffffffffffffffffffffffffffffffffffff163373ffffffffffffffffffffffffffffffffffffffff1614610479576040517f08c379a000000000000000000000000000000000000000000000000000000000815260040161047090610d79565b60405180910390fd5b600073ffffffffffffffffffffffffffffffffffffffff168173ffffffffffffffffffffffffffffffffffffffff16036104e8576040517f08c379a00000000000000000000000000000000000000000000000000000000081526004016104df90610e7b565b60405180910390fd5b8073ffffffffffffffffffffffffffffffffffffffff16600160009054906101000a900473ffffffffffffffffffffffffffffffffffffffff1673ffffffffffffffffffffffffffffffffffffffff167f7e644d79422f17c01e4894b5f4f588d331ebfa28653d42ae832dc59e38c9798f60405160405180910390a380600160006101000a81548173ffffffffffffffffffffffffffffffffffffffff021916908373ffffffffffffffffffffffffffffffffffffffff16021790555050565b6004600085815260200190815260200160002060009054906101000a900460ff16610608576040517f08c379a00000000000000000000000000000000000000000000000000000000081526004016105ff90610ee7565b60405180910390fd5b6106106109b7565b60026000868152602001908152602001600020548160006001811061063857610637610f07565b5b60200201818152505060008060009054906101000a900473ffffffffffffffffffffffffffffffffffffffff1673ffffffffffffffffffffffffffffffffffffffff166343753b4d868686866040518563ffffffff1660e01b81526004016106a394939291906110b9565b602060405180830381865afa1580156106c0573d6000803e3d6000fd5b505050506040513d601f19601f820116820180604052508101906106e4919061112c565b905080610726576040517f08c379a000000000000000000000000000000000000000000000000000000000815260040161071d906111a5565b60405180910390fd5b60016005600088815260200190815260200160002060006101000a81548160ff021916908315150217905550857f543093db8d78fd8619586d3a0be12a5736836393feede0888f262888c81ce4c360405160405180910390a2505050505050565b60056020528060005260406000206000915054906101000a900460ff1681565b600160009054906101000a900473ffffffffffffffffffffffffffffffffffffffff1673ffffffffffffffffffffffffffffffffffffffff163373ffffffffffffffffffffffffffffffffffffffff1614610837576040517f08c379a000000000000000000000000000000000000000000000000000000000815260040161082e90610d79565b60405180910390fd5b6003600082815260200190815260200160002060009054906101000a900460ff16610897576040517f08c379a000000000000000000000000000000000000000000000000000000000815260040161088e90611211565b60405180910390fd5b60016004600083815260200190815260200160002060006101000a81548160ff021916908315150217905550807fe664ae66cdf13db5fa872e31c529d4c087449e6292b57c7211d4633d539ce78060026000848152602001908152602001600020546040516109069190610b09565b60405180910390a250565b80600260008481526020019081526020016000208190555060016003600084815260200190815260200160002060006101000a81548160ff021916908315150217905550817fd4baf8012ad422754c4d25b50836c43e8e7a02d71e1c156c5d0cc5fa57cb10af826040516109859190610b09565b60405180910390a25050565b600160009054906101000a900473ffffffffffffffffffffffffffffffffffffffff1681565b6040518060200160405280600190602082028036833780820191505090505090565b600080fd5b6000819050919050565b6109f1816109de565b81146109fc57600080fd5b50565b600081359050610a0e816109e8565b92915050565b600060208284031215610a2a57610a296109d9565b5b6000610a38848285016109ff565b91505092915050565b60008115159050919050565b610a5681610a41565b82525050565b6000602082019050610a716000830184610a4d565b92915050565b600060ff82169050919050565b610a8d81610a77565b8114610a9857600080fd5b50565b600081359050610aaa81610a84565b92915050565b60008060408385031215610ac757610ac66109d9565b5b6000610ad5858286016109ff565b9250506020610ae685828601610a9b565b9150509250929050565b6000819050919050565b610b0381610af0565b82525050565b6000602082019050610b1e6000830184610afa565b92915050565b600073ffffffffffffffffffffffffffffffffffffffff82169050919050565b6000610b4f82610b24565b9050919050565b610b5f81610b44565b8114610b6a57600080fd5b50565b600081359050610b7c81610b56565b92915050565b600060208284031215610b9857610b976109d9565b5b6000610ba684828501610b6d565b91505092915050565b600080fd5b600081905082602060020282011115610bd057610bcf610baf565b5b92915050565b600081905082604060020282011115610bf257610bf1610baf565b5b92915050565b6000806000806101208587031215610c1357610c126109d9565b5b6000610c21878288016109ff565b9450506020610c3287828801610bb4565b9350506060610c4387828801610bd6565b92505060e0610c5487828801610bb4565b91505092959194509250565b610c6981610af0565b8114610c7457600080fd5b50565b600081359050610c8681610c60565b92915050565b60008060408385031215610ca357610ca26109d9565b5b6000610cb1858286016109ff565b9250506020610cc285828601610c77565b9150509250929050565b610cd581610b44565b82525050565b6000602082019050610cf06000830184610ccc565b92915050565b600082825260208201905092915050565b7f4f6e6c792061646d696e2063616e20706572666f726d2074686973206163746960008201527f6f6e000000000000000000000000000000000000000000000000000000000000602082015250565b6000610d63602283610cf6565b9150610d6e82610d07565b604082019050919050565b60006020820190508181036000830152610d9281610d56565b9050919050565b7f4964656e74697479206e6f7420617070726f7665640000000000000000000000600082015250565b6000610dcf601583610cf6565b9150610dda82610d99565b602082019050919050565b60006020820190508181036000830152610dfe81610dc2565b9050919050565b610e0e81610a77565b82525050565b6000602082019050610e296000830184610e05565b92915050565b7f496e76616c6964206e65772061646d696e000000000000000000000000000000600082015250565b6000610e65601183610cf6565b9150610e7082610e2f565b602082019050919050565b60006020820190508181036000830152610e9481610e58565b9050919050565b7f48617368206e6f7420617070726f766564000000000000000000000000000000600082015250565b6000610ed1601183610cf6565b9150610edc82610e9b565b602082019050919050565b60006020820190508181036000830152610f0081610ec4565b9050919050565b7f4e487b7100000000000000000000000000000000000000000000000000000000600052603260045260246000fd5b82818337505050565b610f4b60408383610f36565b5050565b600060029050919050565b600081905092915050565b6000819050919050565b610f7b60408383610f36565b5050565b6000610f8b8383610f6f565b60408301905092915050565b600082905092915050565b6000604082019050919050565b610fb881610f4f565b610fc28184610f5a565b9250610fcd82610f65565b8060005b8381101561100657610fe38284610f97565b610fed8782610f7f565b9650610ff883610fa2565b925050600181019050610fd1565b505050505050565b600060019050919050565b600081905092915050565b6000819050919050565b61103781610af0565b82525050565b6000611049838361102e565b60208301905092915050565b6000602082019050919050565b61106b8161100e565b6110758184611019565b925061108082611024565b8060005b838110156110b1578151611098878261103d565b96506110a383611055565b925050600181019050611084565b505050505050565b6000610120820190506110cf6000830187610f3f565b6110dc6040830186610faf565b6110e960c0830185610f3f565b6110f7610100830184611062565b95945050505050565b61110981610a41565b811461111457600080fd5b50565b60008151905061112681611100565b92915050565b600060208284031215611142576111416109d9565b5b600061115084828501611117565b91505092915050565b7f496e76616c6964205a4b2070726f6f6600000000000000000000000000000000600082015250565b600061118f601083610cf6565b915061119a82611159565b602082019050919050565b600060208201905081810360008301526111be81611182565b9050919050565b7f48617368206e6f74207375626d69747465642062792075736572000000000000600082015250565b60006111fb601a83610cf6565b9150611206826111c5565b602082019050919050565b6000602082019050818103600083015261122a816111ee565b905091905056fea2646970667358221220f20e034e12f7ee20b9854ac61ca9f57c7ebe4e82682c37038990ad3b05e8594464736f6c63430008140033",
  "linkReferences": {},
  "deployedLinkReferences": {}
}