{
  "_format": "hh-sol-artifact-1",
  "contractName": "IdentityMerkleZKP",
  "sourceName": "contracts/IdentityMerkleZKP.sol",
  "abi": [
    {
      "inputs": [
        {
          "internalType": "address",
          "name": "_verifier",
          "type": "address"
        },
        {
          "internalType": "bytes32",
          "name": "_initialRoot",
          "type": "bytes32"
        }
      ],
      "stateMutability": "nonpayable",
      "type": "constructor"
    },
    {
      "anonymous": false,
      "inputs": [
        {
          "indexed": true,
          "internalType": "address",
          "name": "oldAdmin",
          "type": "address"
        },
        {
          "indexed": true,
          "internalType": "address",
          "name": "newAdmin",
          "type": "address"
        }
      ],
      "name": "AdminChanged",
      "type": "event"
    },
    {
      "anonymous": false,
      "inputs": [
        {
          "indexed": true,
          "internalType": "address",
          "name": "user",
          "type": "address"
        },
        {
          "indexed": true,
          "internalType": "bytes32",
          "name": "merkleRoot",
          "type": "bytes32"
        },
        {
          "indexed": false,
          "internalType": "uint256",
          "name": "timestamp",
          "type": "uint256"
        }
      ],
      "name": "IdentityVerified",
      "type": "event"
    },
    {
      "anonymous": false,
      "inputs": [
        {
          "indexed": true,
          "internalType": "bytes32",
          "name": "oldRoot",
          "type": "bytes32"
        },
        {
          "indexed": true,
          "internalType": "bytes32",
          "name": "newRoot",
          "type": "bytes32"
        },
        {
          "indexed": false,
          "internalType": "uint256",
          "name": "nonce",
          "type": "uint256"
        },
        {
          "indexed": false,
          "internalType": "uint256",
          "name": "timestamp",
          "type": "uint256"
        }
      ],
      "name": "MerkleRootUpdated",
      "type": "event"
    },
    {
      "anonymous": false,
      "inputs": [
        {
          "indexed": true,
          "internalType": "bytes32",
          "name": "root",
          "type": "bytes32"
        },
        {
          "indexed": false,
          "internalType": "uint256",
          "name": "expiredAt",
          "type": "uint256"
        }
      ],
      "name": "RootExpired",
      "type": "event"
    },
    {
      "anonymous": false,
      "inputs": [
        {
          "indexed": true,
          "internalType": "address",
          "name": "subAdmin",
          "type": "address"
        }
      ],
      "name": "SubAdminAdded",
      "type": "event"
    },
    {
      "anonymous": false,
      "inputs": [
        {
          "indexed": true,
          "internalType": "address",
          "name": "subAdmin",
          "type": "address"
        }
      ],
      "name": "SubAdminRemoved",
      "type": "event"
    },
    {
      "anonymous": false,
      "inputs": [
        {
          "indexed": true,
          "internalType": "address",
          "name": "user",
          "type": "address"
        },
        {
          "indexed": false,
          "internalType": "string",
          "name": "reason",
          "type": "string"
        }
      ],
      "name": "VerificationRevoked",
      "type": "event"
    },
    {
      "inputs": [],
      "name": "MAX_BATCH_SIZE",
      "outputs": [
        {
          "internalType": "uint256",
          "name": "",
          "type": "uint256"
        }
      ],
      "stateMutability": "view",
      "type": "function"
    },
    {
      "inputs": [],
      "name": "ROOT_EXPIRY_TIME",
      "outputs": [
        {
          "internalType": "uint256",
          "name": "",
          "type": "uint256"
        }
      ],
      "stateMutability": "view",
      "type": "function"
    },
    {
      "inputs": [
        {
          "internalType": "address",
          "name": "subAdmin",
          "type": "address"
        }
      ],
      "name": "addSubAdmin",
      "outputs": [],
      "stateMutability": "nonpayable",
      "type": "function"
    },
    {
      "inputs": [],
      "name": "admin",
      "outputs": [
        {
          "internalType": "address",
          "name": "",
          "type": "address"
        }
      ],
      "stateMutability": "view",
      "type": "function"
    },
    {
      "inputs": [
        {
          "internalType": "bytes32[]",
          "name": "roots",
          "type": "bytes32[]"
        }
      ],
      "name": "batchUpdateRoots",
      "outputs": [],
      "stateMutability": "nonpayable",
      "type": "function"
    },
    {
      "inputs": [
        {
          "internalType": "bytes32[]",
          "name": "roots",
          "type": "bytes32[]"
        }
      ],
      "name": "cleanupExpiredRoots",
      "outputs": [],
      "stateMutability": "nonpayable",
      "type": "function"
    },
    {
      "inputs": [],
      "name": "currentMerkleRoot",
      "outputs": [
        {
          "internalType": "bytes32",
          "name": "",
          "type": "bytes32"
        }
      ],
      "stateMutability": "view",
      "type": "function"
    },
    {
      "inputs": [],
      "name": "getContractInfo",
      "outputs": [
        {
          "internalType": "bytes32",
          "name": "currentRoot",
          "type": "bytes32"
        },
        {
          "internalType": "uint256",
          "name": "totalRootUpdates",
          "type": "uint256"
        },
        {
          "internalType": "address",
          "name": "contractAdmin",
          "type": "address"
        }
      ],
      "stateMutability": "view",
      "type": "function"
    },
    {
      "inputs": [
        {
          "internalType": "bytes32",
          "name": "root",
          "type": "bytes32"
        }
      ],
      "name": "getRootInfo",
      "outputs": [
        {
          "internalType": "bool",
          "name": "isValid",
          "type": "bool"
        },
        {
          "internalType": "uint256",
          "name": "timestamp",
          "type": "uint256"
        },
        {
          "internalType": "bool",
          "name": "isExpired",
          "type": "bool"
        }
      ],
      "stateMutability": "view",
      "type": "function"
    },
    {
      "inputs": [
        {
          "internalType": "address",
          "name": "user",
          "type": "address"
        }
      ],
      "name": "getUserVerificationInfo",
      "outputs": [
        {
          "internalType": "bool",
          "name": "verified",
          "type": "bool"
        },
        {
          "internalType": "bytes32",
          "name": "merkleRoot",
          "type": "bytes32"
        },
        {
          "internalType": "uint256",
          "name": "timestamp",
          "type": "uint256"
        }
      ],
      "stateMutability": "view",
      "type": "function"
    },
    {
      "inputs": [
        {
          "internalType": "bytes32",
          "name": "oldRoot",
          "type": "bytes32"
        }
      ],
      "name": "invalidateRoot",
      "outputs": [],
      "stateMutability": "nonpayable",
      "type": "function"
    },
    {
      "inputs": [
        {
          "internalType": "address",
          "name": "account",
          "type": "address"
        }
      ],
      "name": "isSubAdmin",
      "outputs": [
        {
          "internalType": "bool",
          "name": "",
          "type": "bool"
        }
      ],
      "stateMutability": "view",
      "type": "function"
    },
    {
      "inputs": [
        {
          "internalType": "bytes32",
          "name": "root",
          "type": "bytes32"
        }
      ],
      "name": "isValidRoot",
      "outputs": [
        {
          "internalType": "bool",
          "name": "",
          "type": "bool"
        }
      ],
      "stateMutability": "view",
      "type": "function"
    },
    {
      "inputs": [
        {
          "internalType": "address",
          "name": "",
          "type": "address"
        }
      ],
      "name": "isVerified",
      "outputs": [
        {
          "internalType": "bool",
          "name": "",
          "type": "bool"
        }
      ],
      "stateMutability": "view",
      "type": "function"
    },
    {
      "inputs": [
        {
          "internalType": "address",
          "name": "subAdmin",
          "type": "address"
        }
      ],
      "name": "removeSubAdmin",
      "outputs": [],
      "stateMutability": "nonpayable",
      "type": "function"
    },
    {
      "inputs": [
        {
          "internalType": "address",
          "name": "user",
          "type": "address"
        },
        {
          "internalType": "string",
          "name": "reason",
          "type": "string"
        }
      ],
      "name": "revokeVerification",
      "outputs": [],
      "stateMutability": "nonpayable",
      "type": "function"
    },
    {
      "inputs": [],
      "name": "rootNonce",
      "outputs": [
        {
          "internalType": "uint256",
          "name": "",
          "type": "uint256"
        }
      ],
      "stateMutability": "view",
      "type": "function"
    },
    {
      "inputs": [
        {
          "internalType": "bytes32",
          "name": "",
          "type": "bytes32"
        }
      ],
      "name": "rootTimestamp",
      "outputs": [
        {
          "internalType": "uint256",
          "name": "",
          "type": "uint256"
        }
      ],
      "stateMutability": "view",
      "type": "function"
    },
    {
      "inputs": [
        {
          "internalType": "address",
          "name": "",
          "type": "address"
        }
      ],
      "name": "subAdmins",
      "outputs": [
        {
          "internalType": "bool",
          "name": "",
          "type": "bool"
        }
      ],
      "stateMutability": "view",
      "type": "function"
    },
    {
      "inputs": [
        {
          "internalType": "address",
          "name": "newAdmin",
          "type": "address"
        }
      ],
      "name": "transferAdmin",
      "outputs": [],
      "stateMutability": "nonpayable",
      "type": "function"
    },
    {
      "inputs": [
        {
          "internalType": "bytes32",
          "name": "newRoot",
          "type": "bytes32"
        }
      ],
      "name": "updateMerkleRoot",
      "outputs": [],
      "stateMutability": "nonpayable",
      "type": "function"
    },
    {
      "inputs": [
        {
          "internalType": "address",
          "name": "",
          "type": "address"
        }
      ],
      "name": "userMerkleRoot",
      "outputs": [
        {
          "internalType": "bytes32",
          "name": "",
          "type": "bytes32"
        }
      ],
      "stateMutability": "view",
      "type": "function"
    },
    {
      "inputs": [
        {
          "internalType": "bytes32",
          "name": "",
          "type": "bytes32"
        }
      ],
      "name": "validRoots",
      "outputs": [
        {
          "internalType": "bool",
          "name": "",
          "type": "bool"
        }
      ],
      "stateMutability": "view",
      "type": "function"
    },
    {
      "inputs": [
        {
          "internalType": "address",
          "name": "",
          "type": "address"
        }
      ],
      "name": "verificationTimestamp",
      "outputs": [
        {
          "internalType": "uint256",
          "name": "",
          "type": "uint256"
        }
      ],
      "stateMutability": "view",
      "type": "function"
    },
    {
      "inputs": [
        {
          "internalType": "uint256[2]",
          "name": "a",
          "type": "uint256[2]"
        },
        {
          "internalType": "uint256[2][2]",
          "name": "b",
          "type": "uint256[2][2]"
        },
        {
          "internalType": "uint256[2]",
          "name": "c",
          "type": "uint256[2]"
        },
        {
          "internalType": "bytes32",
          "name": "merkleRoot",
          "type": "bytes32"
        }
      ],
      "name": "verifyIdentity",
      "outputs": [
        {
          "internalType": "bool",
          "name": "",
          "type": "bool"
        }
      ],
      "stateMutability": "nonpayable",
      "type": "function"
    }
  ],
  "bytecode": "0x60806040523480156200001157600080fd5b50604051620031e1380380620031e183398181016040528101906200003791906200026f565b600073ffffffffffffffffffffffffffffffffffffffff168273ffffffffffffffffffffffffffffffffffffffff1603620000a9576040517f08c379a0000000000000000000000000000000000000000000000000000000008152600401620000a09062000317565b60405180910390fd5b816000806101000a81548173ffffffffffffffffffffffffffffffffffffffff021916908373ffffffffffffffffffffffffffffffffffffffff16021790555033600560006101000a81548173ffffffffffffffffffffffffffffffffffffffff021916908373ffffffffffffffffffffffffffffffffffffffff1602179055506000801b8114620001c2578060018190555060016002600083815260200190815260200160002060006101000a81548160ff021916908315150217905550426003600083815260200190815260200160002081905550806000801b7f7b4cf5f7d2f07c1e726f2078f7ffb89f6298e992ba2920ad3e95a372e7cc8a25600042604051620001b9929190620003a1565b60405180910390a35b5050620003ce565b600080fd5b600073ffffffffffffffffffffffffffffffffffffffff82169050919050565b6000620001fc82620001cf565b9050919050565b6200020e81620001ef565b81146200021a57600080fd5b50565b6000815190506200022e8162000203565b92915050565b6000819050919050565b620002498162000234565b81146200025557600080fd5b50565b60008151905062000269816200023e565b92915050565b60008060408385031215620002895762000288620001ca565b5b600062000299858286016200021d565b9250506020620002ac8582860162000258565b9150509250929050565b600082825260208201905092915050565b7f496e76616c696420766572696669657220616464726573730000000000000000600082015250565b6000620002ff601883620002b6565b91506200030c82620002c7565b602082019050919050565b600060208201905081810360008301526200033281620002f0565b9050919050565b6000819050919050565b6000819050919050565b6000819050919050565b600062000378620003726200036c8462000339565b6200034d565b62000343565b9050919050565b6200038a8162000357565b82525050565b6200039b8162000343565b82525050565b6000604082019050620003b860008301856200037f565b620003c7602083018462000390565b9392505050565b612e0380620003de6000396000f3fe608060405234801561001057600080fd5b50600436106101735760003560e01c80639ea97190116100de578063d1c63b2111610097578063f63f7d8b11610071578063f63f7d8b1461049a578063f851a440146104ca578063f883e478146104e8578063ffec3c491461050457610173565b8063d1c63b2114610432578063db67284514610462578063f4651d571461047e57610173565b80639ea9719014610348578063a971a0b814610366578063b9209e3314610398578063b9c4eb43146103c8578063cc718463146103e4578063cfdbf2541461041457610173565b80634981719b116101305780634981719b1461025e5780635a437b871461027c5780636132fa63146102ac5780636d11c6b0146102dc57806375829def1461030c5780637cc1f8671461032857610173565b806301cbcba1146101785780630ce611e61461019457806329e48e21146101c45780633eefdcce146101f457806341cc5bcb146102105780634783f0ef14610242575b600080fd5b610192600480360381019061018d9190611d34565b610522565b005b6101ae60048036038101906101a99190611db7565b6107c7565b6040516101bb9190611dff565b60405180910390f35b6101de60048036038101906101d99190611db7565b61081e565b6040516101eb9190611dff565b60405180910390f35b61020e60048036038101906102099190611db7565b61083e565b005b61022a60048036038101906102259190611db7565b6109d9565b60405161023993929190611e33565b60405180910390f35b61025c60048036038101906102579190611db7565b610a44565b005b610266610c5c565b6040516102739190611e6a565b60405180910390f35b61029660048036038101906102919190611ee3565b610c63565b6040516102a39190611f1f565b60405180910390f35b6102c660048036038101906102c19190611ee3565b610c7b565b6040516102d39190611dff565b60405180910390f35b6102f660048036038101906102f19190611ee3565b610c9b565b6040516103039190611e6a565b60405180910390f35b61032660048036038101906103219190611ee3565b610cb3565b005b610330610f08565b60405161033f93929190611f49565b60405180910390f35b610350610f41565b60405161035d9190611f1f565b60405180910390f35b610380600480360381019061037b9190611ee3565b610f47565b60405161038f93929190611f80565b60405180910390f35b6103b260048036038101906103ad9190611ee3565b611026565b6040516103bf9190611dff565b60405180910390f35b6103e260048036038101906103dd9190611ee3565b611046565b005b6103fe60048036038101906103f99190611ffb565b611300565b60405161040b9190611dff565b60405180910390f35b61041c6116e5565b6040516104299190611e6a565b60405180910390f35b61044c60048036038101906104479190611ee3565b6116ea565b6040516104599190611dff565b60405180910390f35b61047c60048036038101906104779190611d34565b611740565b005b61049860048036038101906104939190611ee3565b611856565b005b6104b460048036038101906104af9190611db7565b611a10565b6040516104c19190611e6a565b60405180910390f35b6104d2611a28565b6040516104df9190612064565b60405180910390f35b61050260048036038101906104fd91906120d5565b611a4e565b005b61050c611c9d565b6040516105199190611e6a565b60405180910390f35b600560009054906101000a900473ffffffffffffffffffffffffffffffffffffffff1673ffffffffffffffffffffffffffffffffffffffff163373ffffffffffffffffffffffffffffffffffffffff16146105b2576040517f08c379a00000000000000000000000000000000000000000000000000000000081526004016105a9906121b8565b60405180910390fd5b600082829050116105f8576040517f08c379a00000000000000000000000000000000000000000000000000000000081526004016105ef90612224565b60405180910390fd5b606482829050111561063f576040517f08c379a000000000000000000000000000000000000000000000000000000000815260040161063690612290565b60405180910390fd5b60005b82829050811015610734576000801b838383818110610664576106636122b0565b5b90506020020135036106ab576040517f08c379a00000000000000000000000000000000000000000000000000000000081526004016106a29061232b565b60405180910390fd5b6001600260008585858181106106c4576106c36122b0565b5b90506020020135815260200190815260200160002060006101000a81548160ff0219169083151502179055504260036000858585818110610708576107076122b0565b5b90506020020135815260200190815260200160002081905550808061072c9061237a565b915050610642565b5060006001549050828260018585905061074e91906123c2565b81811061075e5761075d6122b0565b5b905060200201356001819055506004600081548092919061077e9061237a565b9190505550600154817f7b4cf5f7d2f07c1e726f2078f7ffb89f6298e992ba2920ad3e95a372e7cc8a25600454426040516107ba9291906123f6565b60405180910390a3505050565b60006002600083815260200190815260200160002060009054906101000a900460ff168015610817575062278d006003600084815260200190815260200160002054610813919061241f565b4211155b9050919050565b60026020528060005260406000206000915054906101000a900460ff1681565b600560009054906101000a900473ffffffffffffffffffffffffffffffffffffffff1673ffffffffffffffffffffffffffffffffffffffff163373ffffffffffffffffffffffffffffffffffffffff16146108ce576040517f08c379a00000000000000000000000000000000000000000000000000000000081526004016108c5906121b8565b60405180910390fd5b6002600082815260200190815260200160002060009054906101000a900460ff1661092e576040517f08c379a00000000000000000000000000000000000000000000000000000000081526004016109259061249f565b60405180910390fd5b6001548103610972576040517f08c379a00000000000000000000000000000000000000000000000000000000081526004016109699061250b565b60405180910390fd5b60006002600083815260200190815260200160002060006101000a81548160ff021916908315150217905550807f5667b3342c49ba59a83549a4f6a82bd34d35cee4a0f3b07926295854242f8aaa426040516109ce9190611e6a565b60405180910390a250565b60008060006002600085815260200190815260200160002060009054906101000a900460ff16600360008681526020019081526020016000205462278d006003600088815260200190815260200160002054610a35919061241f565b42119250925092509193909250565b600560009054906101000a900473ffffffffffffffffffffffffffffffffffffffff1673ffffffffffffffffffffffffffffffffffffffff163373ffffffffffffffffffffffffffffffffffffffff161480610ae95750600660003373ffffffffffffffffffffffffffffffffffffffff1673ffffffffffffffffffffffffffffffffffffffff16815260200190815260200160002060009054906101000a900460ff165b610b28576040517f08c379a0000000000000000000000000000000000000000000000000000000008152600401610b1f9061259d565b60405180910390fd5b6000801b8103610b6d576040517f08c379a0000000000000000000000000000000000000000000000000000000008152600401610b6490612609565b60405180910390fd5b6001548103610bb1576040517f08c379a0000000000000000000000000000000000000000000000000000000008152600401610ba890612675565b60405180910390fd5b600060015490508160018190555060016002600084815260200190815260200160002060006101000a81548160ff02191690831515021790555042600360008481526020019081526020016000208190555060046000815480929190610c169061237a565b919050555081817f7b4cf5f7d2f07c1e726f2078f7ffb89f6298e992ba2920ad3e95a372e7cc8a2560045442604051610c509291906123f6565b60405180910390a35050565b62278d0081565b60086020528060005260406000206000915090505481565b60066020528060005260406000206000915054906101000a900460ff1681565b60096020528060005260406000206000915090505481565b600560009054906101000a900473ffffffffffffffffffffffffffffffffffffffff1673ffffffffffffffffffffffffffffffffffffffff163373ffffffffffffffffffffffffffffffffffffffff1614610d43576040517f08c379a0000000000000000000000000000000000000000000000000000000008152600401610d3a906121b8565b60405180910390fd5b600073ffffffffffffffffffffffffffffffffffffffff168173ffffffffffffffffffffffffffffffffffffffff1603610db2576040517f08c379a0000000000000000000000000000000000000000000000000000000008152600401610da9906126e1565b60405180910390fd5b600560009054906101000a900473ffffffffffffffffffffffffffffffffffffffff1673ffffffffffffffffffffffffffffffffffffffff168173ffffffffffffffffffffffffffffffffffffffff1603610e42576040517f08c379a0000000000000000000000000000000000000000000000000000000008152600401610e399061274d565b60405180910390fd5b6000600560009054906101000a900473ffffffffffffffffffffffffffffffffffffffff16905081600560006101000a81548173ffffffffffffffffffffffffffffffffffffffff021916908373ffffffffffffffffffffffffffffffffffffffff1602179055508173ffffffffffffffffffffffffffffffffffffffff168173ffffffffffffffffffffffffffffffffffffffff167f7e644d79422f17c01e4894b5f4f588d331ebfa28653d42ae832dc59e38c9798f60405160405180910390a35050565b6000806000600154600454600560009054906101000a900473ffffffffffffffffffffffffffffffffffffffff16925092509250909192565b60015481565b6000806000600760008573ffffffffffffffffffffffffffffffffffffffff1673ffffffffffffffffffffffffffffffffffffffff16815260200190815260200160002060009054906101000a900460ff16600860008673ffffffffffffffffffffffffffffffffffffffff1673ffffffffffffffffffffffffffffffffffffffff16815260200190815260200160002054600960008773ffffffffffffffffffffffffffffffffffffffff1673ffffffffffffffffffffffffffffffffffffffff168152602001908152602001600020549250925092509193909250565b60076020528060005260406000206000915054906101000a900460ff1681565b600560009054906101000a900473ffffffffffffffffffffffffffffffffffffffff1673ffffffffffffffffffffffffffffffffffffffff163373ffffffffffffffffffffffffffffffffffffffff16146110d6576040517f08c379a00000000000000000000000000000000000000000000000000000000081526004016110cd906121b8565b60405180910390fd5b600073ffffffffffffffffffffffffffffffffffffffff168173ffffffffffffffffffffffffffffffffffffffff1603611145576040517f08c379a000000000000000000000000000000000000000000000000000000000815260040161113c906127b9565b60405180910390fd5b600560009054906101000a900473ffffffffffffffffffffffffffffffffffffffff1673ffffffffffffffffffffffffffffffffffffffff168173ffffffffffffffffffffffffffffffffffffffff16036111d5576040517f08c379a00000000000000000000000000000000000000000000000000000000081526004016111cc90612825565b60405180910390fd5b600660008273ffffffffffffffffffffffffffffffffffffffff1673ffffffffffffffffffffffffffffffffffffffff16815260200190815260200160002060009054906101000a900460ff1615611262576040517f08c379a000000000000000000000000000000000000000000000000000000000815260040161125990612891565b60405180910390fd5b6001600660008373ffffffffffffffffffffffffffffffffffffffff1673ffffffffffffffffffffffffffffffffffffffff16815260200190815260200160002060006101000a81548160ff0219169083151502179055508073ffffffffffffffffffffffffffffffffffffffff167fcf2ed8c346fb21ab60821000e1a137120e7db3a3b27920f5359d89f7e79f6dc160405160405180910390a250565b6000816000801b8103611348576040517f08c379a000000000000000000000000000000000000000000000000000000000815260040161133f90612609565b60405180910390fd5b6002600082815260200190815260200160002060009054906101000a900460ff166113a8576040517f08c379a000000000000000000000000000000000000000000000000000000000815260040161139f906128fd565b60405180910390fd5b62278d0060036000838152602001908152602001600020546113ca919061241f565b42111561140c576040517f08c379a000000000000000000000000000000000000000000000000000000000815260040161140390612969565b60405180910390fd5b600760003373ffffffffffffffffffffffffffffffffffffffff1673ffffffffffffffffffffffffffffffffffffffff16815260200190815260200160002060009054906101000a900460ff1615611499576040517f08c379a0000000000000000000000000000000000000000000000000000000008152600401611490906129d5565b60405180910390fd5b6114a1611ca3565b8360001c816000600181106114b9576114b86122b0565b5b60200201818152505060008060009054906101000a900473ffffffffffffffffffffffffffffffffffffffff1673ffffffffffffffffffffffffffffffffffffffff166343753b4d898989866040518563ffffffff1660e01b81526004016115249493929190612b78565b602060405180830381865afa158015611541573d6000803e3d6000fd5b505050506040513d601f19601f820116820180604052508101906115659190612beb565b9050806115a7576040517f08c379a000000000000000000000000000000000000000000000000000000000815260040161159e90612c64565b60405180910390fd5b6001600760003373ffffffffffffffffffffffffffffffffffffffff1673ffffffffffffffffffffffffffffffffffffffff16815260200190815260200160002060006101000a81548160ff02191690831515021790555084600860003373ffffffffffffffffffffffffffffffffffffffff1673ffffffffffffffffffffffffffffffffffffffff1681526020019081526020016000208190555042600960003373ffffffffffffffffffffffffffffffffffffffff1673ffffffffffffffffffffffffffffffffffffffff16815260200190815260200160002081905550843373ffffffffffffffffffffffffffffffffffffffff167fb558cab5ce0a27e4646683f8c53357e94c1f98747b816fcdeb7befab18fc0c9c426040516116ce9190611e6a565b60405180910390a360019350505050949350505050565b606481565b6000600660008373ffffffffffffffffffffffffffffffffffffffff1673ffffffffffffffffffffffffffffffffffffffff16815260200190815260200160002060009054906101000a900460ff169050919050565b60005b82829050811080156117555750606481105b1561185157600083838381811061176f5761176e6122b0565b5b9050602002013590506002600082815260200190815260200160002060009054906101000a900460ff1680156117c5575062278d0060036000838152602001908152602001600020546117c2919061241f565b42115b80156117d357506001548114155b1561183d5760006002600083815260200190815260200160002060006101000a81548160ff021916908315150217905550807f5667b3342c49ba59a83549a4f6a82bd34d35cee4a0f3b07926295854242f8aaa426040516118349190611e6a565b60405180910390a25b5080806118499061237a565b915050611743565b505050565b600560009054906101000a900473ffffffffffffffffffffffffffffffffffffffff1673ffffffffffffffffffffffffffffffffffffffff163373ffffffffffffffffffffffffffffffffffffffff16146118e6576040517f08c379a00000000000000000000000000000000000000000000000000000000081526004016118dd906121b8565b60405180910390fd5b600660008273ffffffffffffffffffffffffffffffffffffffff1673ffffffffffffffffffffffffffffffffffffffff16815260200190815260200160002060009054906101000a900460ff16611972576040517f08c379a000000000000000000000000000000000000000000000000000000000815260040161196990612cd0565b60405180910390fd5b6000600660008373ffffffffffffffffffffffffffffffffffffffff1673ffffffffffffffffffffffffffffffffffffffff16815260200190815260200160002060006101000a81548160ff0219169083151502179055508073ffffffffffffffffffffffffffffffffffffffff167ff52db6a895edbda5985a43301341c9e31e0ac6a6fecbd982956afcf3fdc0fe6d60405160405180910390a250565b60036020528060005260406000206000915090505481565b600560009054906101000a900473ffffffffffffffffffffffffffffffffffffffff1681565b600560009054906101000a900473ffffffffffffffffffffffffffffffffffffffff1673ffffffffffffffffffffffffffffffffffffffff163373ffffffffffffffffffffffffffffffffffffffff1614611ade576040517f08c379a0000000000000000000000000000000000000000000000000000000008152600401611ad5906121b8565b60405180910390fd5b600760008473ffffffffffffffffffffffffffffffffffffffff1673ffffffffffffffffffffffffffffffffffffffff16815260200190815260200160002060009054906101000a900460ff16611b6a576040517f08c379a0000000000000000000000000000000000000000000000000000000008152600401611b6190612d3c565b60405180910390fd5b6000600760008573ffffffffffffffffffffffffffffffffffffffff1673ffffffffffffffffffffffffffffffffffffffff16815260200190815260200160002060006101000a81548160ff021916908315150217905550600860008473ffffffffffffffffffffffffffffffffffffffff1673ffffffffffffffffffffffffffffffffffffffff16815260200190815260200160002060009055600960008473ffffffffffffffffffffffffffffffffffffffff1673ffffffffffffffffffffffffffffffffffffffff168152602001908152602001600020600090558273ffffffffffffffffffffffffffffffffffffffff167f3b56c041a4c2e60799edf637b19f958011d99c582ce76af1d7de3b1c73436f858383604051611c90929190612da9565b60405180910390a2505050565b60045481565b6040518060200160405280600190602082028036833780820191505090505090565b600080fd5b600080fd5b600080fd5b600080fd5b600080fd5b60008083601f840112611cf457611cf3611ccf565b5b8235905067ffffffffffffffff811115611d1157611d10611cd4565b5b602083019150836020820283011115611d2d57611d2c611cd9565b5b9250929050565b60008060208385031215611d4b57611d4a611cc5565b5b600083013567ffffffffffffffff811115611d6957611d68611cca565b5b611d7585828601611cde565b92509250509250929050565b6000819050919050565b611d9481611d81565b8114611d9f57600080fd5b50565b600081359050611db181611d8b565b92915050565b600060208284031215611dcd57611dcc611cc5565b5b6000611ddb84828501611da2565b91505092915050565b60008115159050919050565b611df981611de4565b82525050565b6000602082019050611e146000830184611df0565b92915050565b6000819050919050565b611e2d81611e1a565b82525050565b6000606082019050611e486000830186611df0565b611e556020830185611e24565b611e626040830184611df0565b949350505050565b6000602082019050611e7f6000830184611e24565b92915050565b600073ffffffffffffffffffffffffffffffffffffffff82169050919050565b6000611eb082611e85565b9050919050565b611ec081611ea5565b8114611ecb57600080fd5b50565b600081359050611edd81611eb7565b92915050565b600060208284031215611ef957611ef8611cc5565b5b6000611f0784828501611ece565b91505092915050565b611f1981611d81565b82525050565b6000602082019050611f346000830184611f10565b92915050565b611f4381611ea5565b82525050565b6000606082019050611f5e6000830186611f10565b611f6b6020830185611e24565b611f786040830184611f3a565b949350505050565b6000606082019050611f956000830186611df0565b611fa26020830185611f10565b611faf6040830184611e24565b949350505050565b600081905082602060020282011115611fd357611fd2611cd9565b5b92915050565b600081905082604060020282011115611ff557611ff4611cd9565b5b92915050565b600080600080610120858703121561201657612015611cc5565b5b600061202487828801611fb7565b945050604061203587828801611fd9565b93505060c061204687828801611fb7565b92505061010061205887828801611da2565b91505092959194509250565b60006020820190506120796000830184611f3a565b92915050565b60008083601f84011261209557612094611ccf565b5b8235905067ffffffffffffffff8111156120b2576120b1611cd4565b5b6020830191508360018202830111156120ce576120cd611cd9565b5b9250929050565b6000806000604084860312156120ee576120ed611cc5565b5b60006120fc86828701611ece565b935050602084013567ffffffffffffffff81111561211d5761211c611cca565b5b6121298682870161207f565b92509250509250925092565b600082825260208201905092915050565b7f4f6e6c792061646d696e2063616e20706572666f726d2074686973206163746960008201527f6f6e000000000000000000000000000000000000000000000000000000000000602082015250565b60006121a2602283612135565b91506121ad82612146565b604082019050919050565b600060208201905081810360008301526121d181612195565b9050919050565b7f456d70747920726f6f7473206172726179000000000000000000000000000000600082015250565b600061220e601183612135565b9150612219826121d8565b602082019050919050565b6000602082019050818103600083015261223d81612201565b9050919050565b7f42617463682073697a652065786365656473206c696d69740000000000000000600082015250565b600061227a601883612135565b915061228582612244565b602082019050919050565b600060208201905081810360008301526122a98161226d565b9050919050565b7f4e487b7100000000000000000000000000000000000000000000000000000000600052603260045260246000fd5b7f496e76616c696420726f6f7420696e2062617463680000000000000000000000600082015250565b6000612315601583612135565b9150612320826122df565b602082019050919050565b6000602082019050818103600083015261234481612308565b9050919050565b7f4e487b7100000000000000000000000000000000000000000000000000000000600052601160045260246000fd5b600061238582611e1a565b91507fffffffffffffffffffffffffffffffffffffffffffffffffffffffffffffffff82036123b7576123b661234b565b5b600182019050919050565b60006123cd82611e1a565b91506123d883611e1a565b92508282039050818111156123f0576123ef61234b565b5b92915050565b600060408201905061240b6000830185611e24565b6124186020830184611e24565b9392505050565b600061242a82611e1a565b915061243583611e1a565b925082820190508082111561244d5761244c61234b565b5b92915050565b7f526f6f74206e6f742076616c6964000000000000000000000000000000000000600082015250565b6000612489600e83612135565b915061249482612453565b602082019050919050565b600060208201905081810360008301526124b88161247c565b9050919050565b7f43616e6e6f7420696e76616c69646174652063757272656e7420726f6f740000600082015250565b60006124f5601e83612135565b9150612500826124bf565b602082019050919050565b60006020820190508181036000830152612524816124e8565b9050919050565b7f4f6e6c792061646d696e206f72207375622d61646d696e2063616e207065726660008201527f6f726d207468697320616374696f6e0000000000000000000000000000000000602082015250565b6000612587602f83612135565b91506125928261252b565b604082019050919050565b600060208201905081810360008301526125b68161257a565b9050919050565b7f496e76616c696420726f6f742068617368000000000000000000000000000000600082015250565b60006125f3601183612135565b91506125fe826125bd565b602082019050919050565b60006020820190508181036000830152612622816125e6565b9050919050565b7f526f6f7420616c72656164792063757272656e74000000000000000000000000600082015250565b600061265f601483612135565b915061266a82612629565b602082019050919050565b6000602082019050818103600083015261268e81612652565b9050919050565b7f496e76616c6964206e65772061646d696e206164647265737300000000000000600082015250565b60006126cb601983612135565b91506126d682612695565b602082019050919050565b600060208201905081810360008301526126fa816126be565b9050919050565b7f416c72656164792061646d696e00000000000000000000000000000000000000600082015250565b6000612737600d83612135565b915061274282612701565b602082019050919050565b600060208201905081810360008301526127668161272a565b9050919050565b7f496e76616c6964207375622d61646d696e206164647265737300000000000000600082015250565b60006127a3601983612135565b91506127ae8261276d565b602082019050919050565b600060208201905081810360008301526127d281612796565b9050919050565b7f41646d696e2063616e6e6f74206265207375622d61646d696e00000000000000600082015250565b600061280f601983612135565b915061281a826127d9565b602082019050919050565b6000602082019050818103600083015261283e81612802565b9050919050565b7f416c72656164792061207375622d61646d696e00000000000000000000000000600082015250565b600061287b601383612135565b915061288682612845565b602082019050919050565b600060208201905081810360008301526128aa8161286e565b9050919050565b7f526f6f74206e6f742076616c6964206f72206578706972656400000000000000600082015250565b60006128e7601983612135565b91506128f2826128b1565b602082019050919050565b60006020820190508181036000830152612916816128da565b9050919050565b7f526f6f7420686173206578706972656400000000000000000000000000000000600082015250565b6000612953601083612135565b915061295e8261291d565b602082019050919050565b6000602082019050818103600083015261298281612946565b9050919050565b7f5573657220616c72656164792076657269666965640000000000000000000000600082015250565b60006129bf601583612135565b91506129ca82612989565b602082019050919050565b600060208201905081810360008301526129ee816129b2565b9050919050565b82818337505050565b612a0a604083836129f5565b5050565b600060029050919050565b600081905092915050565b6000819050919050565b612a3a604083836129f5565b5050565b6000612a4a8383612a2e565b60408301905092915050565b600082905092915050565b6000604082019050919050565b612a7781612a0e565b612a818184612a19565b9250612a8c82612a24565b8060005b83811015612ac557612aa28284612a56565b612aac8782612a3e565b9650612ab783612a61565b925050600181019050612a90565b505050505050565b600060019050919050565b600081905092915050565b6000819050919050565b612af681611e1a565b82525050565b6000612b088383612aed565b60208301905092915050565b6000602082019050919050565b612b2a81612acd565b612b348184612ad8565b9250612b3f82612ae3565b8060005b83811015612b70578151612b578782612afc565b9650612b6283612b14565b925050600181019050612b43565b505050505050565b600061012082019050612b8e60008301876129fe565b612b9b6040830186612a6e565b612ba860c08301856129fe565b612bb6610100830184612b21565b95945050505050565b612bc881611de4565b8114612bd357600080fd5b50565b600081519050612be581612bbf565b92915050565b600060208284031215612c0157612c00611cc5565b5b6000612c0f84828501612bd6565b91505092915050565b7f496e76616c6964205a4b2070726f6f6600000000000000000000000000000000600082015250565b6000612c4e601083612135565b9150612c5982612c18565b602082019050919050565b60006020820190508181036000830152612c7d81612c41565b9050919050565b7f4e6f742061207375622d61646d696e0000000000000000000000000000000000600082015250565b6000612cba600f83612135565b9150612cc582612c84565b602082019050919050565b60006020820190508181036000830152612ce981612cad565b9050919050565b7f55736572206e6f74207665726966696564000000000000000000000000000000600082015250565b6000612d26601183612135565b9150612d3182612cf0565b602082019050919050565b60006020820190508181036000830152612d5581612d19565b9050919050565b82818337600083830152505050565b6000601f19601f8301169050919050565b6000612d888385612135565b9350612d95838584612d5c565b612d9e83612d6b565b840190509392505050565b60006020820190508181036000830152612dc4818486612d7c565b9050939250505056fea2646970667358221220473844d6b7a7a804e73e62c8eafbabd6d00f36206edbc50eb9a45a2f4f2eddb364736f6c63430008140033",
  "linkReferences": {},
  "deployedLinkReferences": {}
}